:020000040800F2
:1000000000500020593600088D360008251C0008D5
:100010002B1C0008311C0008371C000800000000E1
:100020000000000000000000000000008D36000805
:100030008D360008000000008D3600088D3600085F
:100040008D3600088D3600088D3600088D36000884
:100050008D3600088D3600088D3600088D36000874
:100060008D3600088D3600088D3600088D36000864
:100070008D3600088D3600088D3600088D36000854
:100080008D3600088D3600088D3600081D1C0008CE
:10009000211C00088D360008291B00088D36000839
:1000A0008D3600088D3600088D3600088D36000824
:1000B0008D3600088D3600088D3600088D36000814
:1000C0008D3600088D3600088D3600088D36000804
:1000D0008D3600088D3600088D3600088D360008F4
:1000E0008D3600088D3600088D36000800000000AF
:1000F0000000000000000000000000000000000000
:1001000000000000000000005FF808F110B5054C89
:10011000237833B9044B13B10448AFF300800123B3
:10012000237010BD780200200000000064990008D0
:100130000C4B43B10C4810B50C49AFF300800C4890
:10014000036823B910BD0A48036833B97047094BE7
:10015000002BF7D0BDE810401847064B002BF5D018
:10016000184700BF00000000649900087C020020CE
:100170007402002000000000154B002B08BF134B39
:100180009D46A3F5803A00218B460F461348144A3A
:10019000121A06F065FB0F4B002B00D098470E4B50
:1001A000002B00D098470020002104000D000D48CE
:1001B000002802D00C4802F02FFA06F091FA200035
:1001C000290002F0CFFC02F099FB00BF00000800FC
:1001D0000050002000000000552B0008780200208D
:1001E000980E0020192600080000000043681A68D5
:1001F00003681A4214BF01200020704770470000B6
:10020000044A138801331380034A138801339BB2D5
:10021000138070472E05002034050020044A1388FF
:1002200001331380034A138801339BB21380704754
:1002300036050020320500200368184708B10B6816
:100240000360704770470000014805F001B800BF27
:1002500088070020F8B50A4E0A4D06F1B00730466F
:1002600004F0FAFD58B1EC783846E4B2631CDBB216
:10027000EB7005F03FFC2C44C0B2E071EFE7F8BD35
:10028000C00700203805002010B50446382105F0CD
:10029000D4FE204610BD000010B50446074BB03018
:1002A00003F1200240F8B03C80330260436005F067
:1002B000F9FB204604F0A4FE204610BD7C92000805
:1002C000A0F1B000E8E7A0F1B400E5E710B50446FE
:1002D00005F03EFC237E1BB105F0ACFD0023237628
:1002E00005F04CFC204610BD024BDA681B68136019
:1002F000704700BF0C050020044B9A681B68136010
:10030000034B9A681B681360704700BF10040020FD
:100310002C040020044B9A681B681360034B9A68F6
:100320001B681360704700BFD8030020F40300204F
:1003300038B504460D461C22002106F091FA2046ED
:10034000294605F018F8204638BD38B5054655F859
:10035000043B04469B689847284601F019FB054674
:1003600023682046DB689847284638BD38B5002307
:1003700004460D46037605F0EBFB2046294602F0C5
:10038000C7FE05F0FBFB204638BD38B504460D46D8
:1003900005F0DEFB2946204602F034FFBDE8384078
:1003A00005F0ECBB10B5044604F07AFF2046064B7E
:1003B000102240F8283B002106F052FA0123204683
:1003C00084F8383010BD00BF2493000810F15A0F94
:1003D00008BF4FF4FA72154BC1B210B508BF1A80AE
:1003E00001F15902D2B2582A15D8114A00F15A0423
:1003F0001278624302F5FA721A80013958290FD82F
:100400000B4A1278504300F291501880198809481D
:10041000FFF7BBFF10BD0028EFD140F29152EBE790
:100420005A2804BF40F62E121A80EFE7F40000208D
:1004300067070020F004002070B5454C2378032B9B
:1004400000F28380DFE803F00209101C4148FFF747
:10045000CDFE08B10323237070BD3E48FFF7C6FEF2
:100460000028F9D10223F6E73A48FFF7BFFE054618
:1004700000286AD1384804F0E2FE2570606070BD43
:100480003448FFF7B3FE00285DD0012632482670BD
:1004900004F0D5FE6368C01A40F28233A06065386C
:1004A000984208D82D4D2E4B2A78B2B919782E7063
:1004B00062F3000119706FF47A7040F2CE72A36893
:1004C000191891422FD8264A1378D90754BF43F000
:1004D00001036FF30003137070BD012A14D11A7861
:1004E00000206FF300021A70FFF770FF00231D4A0F
:1004F00013701D4A13801D4A13801D4BDA681B6858
:10050000136002232B70D6E7022A1A786FF30002D9
:100510001A7006D10020134B1870FFF757FF032302
:10052000F0E70023EEE740F6B732934294DD0B4B41
:100530001A78002A90D00A4A11786FF300011170DE
:1005400000221A7070BD207070BD012383E700BFC8
:10055000B40700209402002068070020A8070020AC
:10056000AA070020A907002032050020340500203A
:10057000D4040020012808D10D4B9A681B68136031
:100580000C4BDA681B681360704710B9084BDA68C7
:10059000F4E7022806D1064BDA681B681360054BA6
:1005A0009A68EFE7032801D1FFF7A6BE704700BFA6
:1005B000100400202C040020012808D10D4B9A685B
:1005C0001B6813600C4BDA681B681360704710B926
:1005D000084BDA68F4E7022806D1064BDA681B6894
:1005E0001360054B9A68EFE7032801D1FFF792BE2D
:1005F000704700BFD8030020F403002008B5094865
:1006000004F03BFC68B1084B08489A79D2B2511CFF
:10061000C9B29971134493F80711BDE8084005F079
:1006200053BA08BDC007002038050020700800201C
:1006300038B544F62063354C354D22889A4218DD92
:1006400042F20F732A889A4213DCF0213148FFF7F7
:100650009CFE40F28B113048FFF797FE0120FFF718
:1006600089FF0120FFF7A8FF2C4A137843F001030C
:10067000137044F620632A889A4218DD42F20F7301
:1006800022889A4213DC40F28B112248FFF77DFE4C
:10069000F0212148FFF779FE0120FFF76BFF0120D1
:1006A000FFF78AFF1D4B1A786FF300021A70238838
:1006B000B3F5FA6F28DA2B88B3F5FA6F24DA174B03
:1006C0001B78DB0711D540F295111248FFF75DFE4C
:1006D00040F295111048FFF758FE0120FFF74AFF3E
:1006E0000220BDE83840FFF767BF4FF4D2710948D8
:1006F000FFF74BFE4FF4D2710748FFF746FE02208A
:10070000FFF738FF0120ECE738BD00BF4A090020A1
:1007100048090020000300201C030020AA07002035
:1007200001280AD002280ED098B96FF05900094B61
:100730001A68094B1A80FFF749BE064B5A201A68FF
:10074000064B1A80F7E7034B00201A68044B1A8007
:10075000F1E77047F40800206007002064070020DC
:1007600062070020552370B58EB08DF804304E23FB
:100770008DF8053045238DF8063052238DF807306B
:1007800000238DF808303A23754C8DF8093094F821
:100790000832DBB2A22B00F0CD800CD8A02B19D0F0
:1007A000A12B00F08480DD238DF80A3002238DF820
:1007B0000830072329E0A42B52D03CD3F02BF2D1F0
:1007C0008DF80A300D238DF80B3003238DF8083097
:1007D00008231AE063488DF80A30FFF7B6FD624D32
:1007E00028806248FFF7B1FD2B7868808DF80B30C8
:1007F0006B788DF80D00C0F307208DF80C308DF864
:100800000E0006238DF808300B2300210846CAB2DB
:100810009A4201F1010180F299800EAD2A4412F84A
:10082000346C62797040D2B2551CEDB222446571CD
:1008300082F80761EBE7A3238DF80A304C4B4A4A54
:100840001B681360C3F307228DF80B308DF80C2062
:10085000C3F307421B0E8DF80D208DF80E30D0E744
:100860008DF80A30434B1B68C3F307228DF80B3019
:100870008DF80C20C3F307421B0E8DF80E303E4B53
:100880008DF80D201B68384A8DF80F301360C3F3C4
:1008900007228DF81020C3F307421B0E8DF812308B
:1008A0000A238DF811208DF808300F23ADE7334B64
:1008B00094F80922324D1A7094F80A225A7094F86A
:1008C0000B229A7094F80C2294F80D02DA701968D1
:1008D000187094F80E022B4A587094F80F021160A9
:1008E000987094F81002D8701B682B60264B1B7808
:1008F000A3B9002914DA494224481160FFF745FDE5
:100900000220FFF737FE296800290EDA4942204805
:100910002960FFF73AFD0220FFF74EFEA1234FE7C3
:100920001A48FFF732FD0120EBE71948FFF72DFDCC
:100930000120F1E7144B1B7833B994F80902154BE9
:1009400040B21870FFF742FDA22339E76379DBB2AA
:100950005A1CD2B262711C4484F807010EB070BDFB
:100960003805002048040020B00700208004002043
:10097000F4080020D4080020D8080020AC0700208C
:10098000E0080020DC080020A80700200003002069
:100990001C0300202A05002008B5064804F04BFC83
:1009A000A322054B1860054B83F80822BDE80840D8
:1009B000FFF7D8BE88070020F40800203805002083
:1009C000F8B54C4E4C4D34463279F3789A4200F0EB
:1009D00090802B78062B5DD8DFE803F004121E29E7
:1009E000343F5E002379DBB25A1CD2B22271234419
:1009F000DB79552BE8D101232B7000236370E3E7EB
:100A00002379DBB25A1CD2B222712344DB794E2BFC
:100A10003CD102232B70D7E72379DBB25A1CD2B228
:100A200022712344DB79452B30D10323F2E723796C
:100A3000DBB25A1CD2B222712344DB79522B25D16E
:100A40000423E7E72379DBB25A1CD2B22344227194
:100A5000DA792A4B1A700523DCE72379DBB25A1CBA
:100A6000D2B222712344DB793A2B0FD106232B70AB
:100A7000224B93F9003083F03602D2B26270012229
:100A8000DBB284F807321E4B1A709DE72379013BD5
:100A9000DBB223710023BDE7184991F90030012B27
:100AA00015DD174890F90020571C07702079224463
:100AB0002044C079C0B282F807022279D2B2501C19
:100AC000C0B220712244D279607842406270013B0A
:100AD0005BB2002B0B703FF777AF002362782B706F
:100AE00023792344DB799A427FF46EAFFFF73AFE15
:100AF0006AE7F8BD380500206607002029050020B8
:100B00002805002008B50948FFF71FFC084B18808E
:100B10000848FFF71AFCA022074B1880074B83F800
:100B20000822BDE80840FFF71DBE00BF48040020B2
:100B300048090020800400204A09002038050020D0
:100B400038B5094D094B2A88094C1A602288094B8F
:100B50001A60A422084B83F80822FFF703FE002343
:100B60002B80238038BD00BF36050020D40800202C
:100B70002E050020D808002038050020C36810B5D5
:100B800004460BB19B689847204610BD38B5054612
:100B90000446064B45F8283B04F0BDFA2846FFF70B
:100BA000EDFF204604F0A4FB204638BD2493000846
:100BB00010B50446FFF7EAFF2046402105F03DFA54
:100BC000204610BD10B50446024B0360FFF7DEFF60
:100BD000204610BD3893000808B5034653F8042B8F
:100BE00002B9036002689A4204D0682202490348AD
:100BF00004F092FF184608BD88870008A8870008FF
:100C000008B50248FFF7E8FF08BD00BFF00B002061
:100C100008B50248FFF7E0FF08BD00BFF00B002059
:100C2000F8B504460F460546074B084E44F8043B0A
:100C30003046FFF7D1FF3946204600F0B3FE30467C
:100C4000FFF7CAFF2846F8BD6C870008F00B0020AC
:100C500038B50D4604461022002105F001FE2B6830
:100C60002360014BE36038BD7C8700082DE9804894
:100C70008DB004F06DFF4FF47A71C14802F0A6F90F
:100C800004F07CFF04F064FF4FF47A71BD4802F079
:100C90009DF904F073FF4FF4FA71B948FFF775FB43
:100CA0004FF4FA71B748FFF770FB0A22B64BB74E04
:100CB00001201A70FFF75EFC0120FFF77DFCB3688E
:100CC00032684FF4FA701A6005F0E1F80220FFF77D
:100CD00051FC0220FFF770FC4FF4FA7005F0D7F8D2
:100CE0005A20FFF773FB0020FFF744FC0020FFF7BA
:100CF00063FC4FF4C87005F0CAF86FF05900FFF7B5
:100D000065FB4FF4C87005F0C2F80020FFF75EFBEA
:100D100001229F4B9F481A7004F050FA9E4804F03D
:100D20004DFA9E4B0CA941F8183D08A8FFF790FF1B
:100D3000002208A99A4804F029F908A8FFF71EFF25
:100D4000984B0CA941F81C3D08A8FFF781FF08A9A2
:100D5000954803F0B2FF08A8FFF710FF934B0CA9CA
:100D600041F8203D08A8FFF773FF08A9904803F059
:100D7000A4FF08A8FFF702FF8E4B0CA941F8243D01
:100D800008A8FFF765FF8C4A002308A98B4804F0E8
:100D9000A5F908A8FFF7F2FE894B0CA941F8283DF8
:100DA00008A8FFF755FF08A9864803F086FF08A8A2
:100DB000FFF7E4FE844B0CA941F82C3D08A8FFF78F
:100DC00047FF824F08A97F4803F09DFF08A8FFF75F
:100DD000D5FE3B787E4C6FF300033B7000233268F6
:100DE0002370F3686B481A6004F029FA06F068F87B
:100DF000A046784D674C204604F021FADFF8F891C0
:100E0000D9F80030C01A962820D9734B0CA99A68DB
:100E10001B6808A81360714B41F8143DFFF718FFD9
:100E200008A90A2200236E4804F058F908A8FFF721
:100E3000A5FE204604F003FA6A49C9F800000846F6
:100E4000FFF7D4F978BB8B680A681A60204604F073
:100E5000F6F9DFF8A891D9F80030C01A322806D97F
:100E6000FFF7EAFA204604F0EAF9C9F80000204644
:100E700004F0E5F9DFF88891D9F80030C01A50285D
:100E800006D9FFF73FFE204604F0D9F9C9F8000063
:100E900098F80030032B00F21384DFE813F006000B
:100EA00019000C012C02CB68CEE7397811F0010152
:100EB00040F0CB800846FFF75DFB0846FFF77CFB60
:100EC0000846FFF783FA3B7843F001033B70BCE030
:100ED000397811F0010100F0EA80F36832684FF4CC
:100EE000FA711A602648FFF750FA4FF4FA71254854
:100EF000FFF74BFA40F2A4623B4B1B68934240F26F
:100F00008C80204604F09BF9DFF8F890D9F8003087
:100F1000C01A322820D93B78DFF8ECA013F0010F7B
:100F20009AF8002022D0033252B2592A8AF80020BF
:100F300002DD6FF300033B709AF90000FFF746FAF9
:100F40009AF90030002B61DD284A5B1013702046AF
:100F500004F075F9C9F800000021254B1980254BD4
:100F600019800846FFF706FB08466CE0033A52B2C8
:100F70008AF800205932DFDA43F00103DBE700BFD3
:100F8000000300201C03002067070020D404002079
:100F9000B4070020680700208807002055020008D9
:100FA000C007002001020008380300201D020008CD
:100FB00088030020410B000820A1070090080020B2
:100FC00049020008B002002099090008AA07002081
:100FD000A8070020A90700200C050020E90200084E
:100FE00008090020B8040020F4080020D1080020DF
:100FF0003205002034050020FC080020E80800200D
:10100000EC080020F80800202A0500209FD00222CA
:1010100093FBF2F3BD4A5B4298E7DFF8189399F926
:101020000010002925D1BA4A1180BA4A1180A3F1D3
:10103000FA02762A95D9B3F5AE7F80F0A780022018
:10104000FFF798FA0220FFF7B7FADFF8EC9299F869
:10105000042099F803309A4201D0FFF7B1FC99F8C7
:10106000062099F805309A423FF4C5AEFFF7C6FA5C
:10107000C0E680F22F83A64AA449138809789BB260
:101080008B42A44804DC03889BB2994280F21C8303
:101090000021018008461180FFF76CFA0846FFF72F
:1010A0008BFA084689F80010FFF790F912E3B3684D
:1010B00032681A6055E72B78042BC6D8DFE813F0A6
:1010C00005002C0057007A000801934B1B68B3F50C
:1010D000247F80F02A820020FFF74CFA0020FFF7DF
:1010E0006BFA5A20FFF772F94FF416718B48FFF72D
:1010F0004CF94FF416718A48FFF747F90023854AE7
:101100001380834A1380874A13703B7843F00103AE
:101110003B7001232B7098E7DFF8F891DFF8F0A11E
:10112000B9F800309BB2372B05DCBAF800309BB21F
:10113000372B40F30C834FF4FA717848FFF725F909
:101140004FF4FA717648FFF720F90020FFF734FAE0
:101150000020FFF70FFA3B7813F0010300D00323C0
:101160002B700023AAF80030A9F800306DE76A4B15
:101170001A6840F2A4639A420AD9C8216748FFF767
:1011800004F94FF4FA716648FFF7FFF80120DFE237
:101190000020FFF711FA0020FFF7ECF94FF4FA7185
:1011A0005E48FFF7F2F84FF4FA715D48FFF7EDF88B
:1011B0000323AFE75C4B1A8842F210739A4203DCB8
:1011C0005A4A12889A420ADD0020FFF7D3F900201C
:1011D000FFF7F2F90020FFF7F9F804232B703B78B2
:1011E000DB077FF532AFDFF83091D9F80030A3F597
:1011F0001173B3F5917F14D8204604F020F84C4BBE
:101200004FF4E17118604548FFF7BFF84FF4E17102
:101210004348FFF7BAF80120FFF7ACF90120FFF7C8
:10122000CBF9D9F80030B3F5117F14D2204604F081
:1012300006F83F4B4FF4D27118603848FFF7A5F815
:101240004FF48C713648FFF7A0F80120FFF792F9B0
:101250000120FFF7B1F9D9F80030A3F26733B3F5F5
:101260004F7F14D8204603F0EAFF314B4FF48C71C6
:1012700018602A48FFF789F84FF4D2712848FFF721
:1012800084F80120FFF776F90120FFF795F940F285
:10129000A463D9F800209A427FF6D7AE0020FFF76A
:1012A0008BF9DFF88CA00020FFF764F92046DAF80C
:1012B000009003F0C4FFA9EB0000C8287FF6C5AE7C
:1012C0000023134A1380134A138002232B704AE130
:1012D0000020FFF74FF90020FFF76EF9114A13784D
:1012E000032B03D13B786FF3000311E70321013394
:1012F00029701370E7E52B78042B3FF6A6AEDFE8E4
:1013000013F01D00AB003A00B9011701D00800200E
:101310003405002032050020F408002000030020DE
:101320001C030020300500204A0900204809002045
:10133000000900202A05002038050020BD4B1A684E
:1013400040F2A3639A420BD9BB4B1A8844F6206340
:101350009A4240F3EA80B94A12889A4240F3E58003
:101360000020FFF729F90020FFF704F90022B44B11
:101370001A700423CEE6DFF8E8A2BAF800309BB278
:10138000232B05DCAF4B1B889BB2232B40F3C98179
:10139000A94B1A8841F288339A4203DCA74A128883
:1013A0009A424DDD4FF4FA71A748DFF8A8B2FEF774
:1013B000ECFF4FF4FA71A548FEF7E7FF9BF8003009
:1013C000DFF8A8928BB9FEF7A5FFFEF795FF26235D
:1013D0009C4A2046AAF80030138003F030FFC9F879
:1013E000000001238BF800302FE6994B204693F83C
:1013F00000A0BAF1000F12D103F021FFD9F800309C
:10140000C01AB0F5966F40F29080F36832681A60A7
:10141000FEF772FFFEF77EFF85F800A015E603F0E9
:101420000EFFD9F80030C01AB0F5E16F7AD9F36831
:1014300032681A60FEF760FFFEF76CFF002369E672
:10144000844B1B78002B70D14FF496717E48FEF7C9
:101450009CFF4FF4967196E6DFF80492B9F80030DD
:101460009BB2252B05DC774B1B889BB2252B40F3C9
:101470006481714B1A8841F288339A4203DC6F4AC7
:1014800012889A42DCDDDFF8CCB1DFF8E0A19BF8EE
:101490000030C3B94FF4FA716B48FEF776FF4FF492
:1014A000FA716A48FEF771FFFEF734FFFEF724FF7A
:1014B0002623644A2046A9F80030138003F0BFFEBB
:1014C000CAF800008DE7624B204693F80090B9F10E
:1014D000000F14D103F0B3FEDAF80030C01A40F266
:1014E000DC53984221D9F368326848461A60FFF706
:1014F00041F84846FFF760F885F80090A5E503F04D
:101500009EFEDAF80030C01A40F6B833984209D986
:10151000F368326800201A60FFF72CF80020FFF70C
:101520004BF88BE7B36832681A60FFF781F88CE5F7
:10153000DFF80C9199F80030022B1ADC204603F0FA
:101540007EFEDFF82CA1DAF80030C01AB0F57A7F01
:101550007FF67BAD99F80000FFF7E2F899F80030CC
:10156000013389F80030204603F069FECAF8000014
:101570006BE5394B1A8840F2A3639A42374BB3F8B4
:1015800000E033DC40F2A4639E4535482D49314AE2
:10159000DFF8BC90DFF8CCC01CDDBCF800A09A4599
:1015A00018DD4FF0010EDFF8C0C089F800E09CF8AC
:1015B000003083EA0E038CF800302BB10023038047
:1015C00013700B800223A5E5038013700B8085F850
:1015D00000E03AE50023BCF800C00380E64589F846
:1015E00000300B8013707FF794ADEBE740F6543377
:1015F0009E4506DD1B490988994202DD9A423FF764
:1016000024AD0120184A1649137883F001031370A2
:101610000F4A10700B4A53B100230B8013800D4A00
:10162000137040F2A4639E45CCDC28700DE50B805E
:101630001380BDE5F4080020480900204A09002075
:101640005F07002034050020000300201C03002059
:101650002B0500204C0900206007002062070020B5
:1016600032050020640700202C050020E40800203B
:10167000F00800203C4A13889BB22D2B04DC3B4B26
:101680001B889BB22D2B67DD13889BB26E2B05DC6C
:10169000364B1B889BB26E2B7FF747AFDFF8DCA081
:1016A000FEF72AFEFEF736FE2046DAF8009003F039
:1016B000C6FDA9EB000096287FF6C7AC002305E61F
:1016C000002388F80030C0E40220FEF753FF012019
:1016D000FEF772FF99F90030002B7FF7B6AC234A72
:1016E0002349138809789BB28B421F4803DC038887
:1016F0009BB299420EDA0021018008461180FEF764
:1017000039FF0846FEF758FF084689F80010FEF733
:101710005DFE9AE40220FEF74FFF0120FEF72AFF4C
:1017200093E44FF4F5711348FEF72FFE12484FF47F
:10173000F571FEF72AFE012082E44FF4F5710D48A1
:10174000FEF723FE4FF4F5710B48FEF71EFE022054
:10175000FEF710FF012076E44FF4D2710548FEF742
:1017600014FE4FF4D2710EE532050020340500203E
:10177000D1080020000300201C030020E408002002
:1017800010B50446FEF788FD2046CC2104F055FC38
:10179000204610BDA0F1B000F2E7A0F1B400EFE7E1
:1017A00010B50446FFF70EFA2046402104F045FC30
:1017B000204610BDF8B52D21574E5848FEF7B8FD0C
:1017C0001B215748574CFEF7B3FD574D1A213046A1
:1017D000FEF7CCFD3046554E2246294600F01AFF52
:1017E00008213046FEF7C2FD3046514E22462946BA
:1017F00000F010FF15213046FEF7B8FD29464D4D8B
:101800002246304600F006FF4FF4E1330A22092158
:10181000284603F0D7FA22464749284600F0FAFE48
:101820001E214648FEF784FD1F214548FEF780FD36
:10183000444E16214448FEF77BFD444D1721444891
:10184000FEF776FD1C21304603F0DCF922462946DE
:101850003046404E00F0DEFE1D213F48FEF768FD99
:101860001C220021304604F0FBFF30463B4E142181
:1018700003F06EFD3A4F00213046FFF7D1F93046B4
:10188000384E2246394600F0C5FE01213046FFF7AA
:10189000C7F93046344E2246394600F0BBFE1921C6
:1018A000304603F0AFF93046304E2246294600F06C
:1018B000B1FE1821304603F0A5F929462C4D2246E9
:1018C000304600F0A7FE2B4E284603F0D2FC2846F7
:1018D000294D2246314600F09DFE284603F0C9FC02
:1018E0002846264D2246314600F094FE2846FEF753
:1018F00059FD2846224D2246224900F08BFE2846FB
:10190000FEF750FD204B22462B602846BDE8F840EC
:101910001E4900F07FBE00BFF0040020B804002084
:10192000D4040020F0000020CD02000800030020B5
:101930001C030020C007002099020008F4030020C7
:10194000D8030020B0020020100400205D4C0008E5
:101950002C040020940200200C05002048040020E4
:10196000FD010008800400203803002088030020C7
:10197000680700209D51000888070020900800207B
:10198000080900208D0B000838930008C50B0008DB
:1019900008B500F07BF8C0F3032343EA001080B2DF
:1019A00008BD000070B5A1F1F0039BB20F2B86B00B
:1019B00004460D4615D92E49284603F027FD2C492B
:1019C0002060284603F044FD29490646284603F0D6
:1019D000D5FC236801330FD13C222649264804F068
:1019E0009BF82649284603F011FD2449206028462B
:1019F00003F02EFD0646ECE7731C03D13D221D4982
:101A00001F48ECE72586C6F304361E4D84F8326085
:101A1000AB69012243F40073AB61AB69204603F468
:101A200000730193019B0023A3626360A360E360E2
:101A30006361A3614FF460232261E36102F01EF849
:101A400010B1114804F09CF96B6803F44043B3F5FE
:101A5000004F0AD0022302934FF4004302A80493DC
:101A600002F0B0FB204602F089F806B070BD00BF5E
:101A7000BC870008448A0008AC8A00087088000807
:101A8000D68A000800100240EF8A00081FB5002324
:101A900001220193042390F832100446029203932A
:101AA00011293FD8DFE801F00A091C1F1D21232559
:101AB00027292B2D2F313335373C019201A92046A0
:101AC00001F09CFE204601F055FF0A21204601F05E
:101AD000F3FD38BB204601F08DFE80B204B010BD8E
:101AE00002230193EAE70323FBE70523F9E7062333
:101AF000F7E70723F5E70823F3E70923F1E70A23CC
:101B0000EFE70B23EDE70C23EBE70D23E9E70E23CB
:101B1000E7E70F23E5E71023019307230393CDE7BE
:101B20001123F9E70020D9E7364B70B55A69D2077F
:101B30002AD59868344E99683040B04208BF0126D3
:101B4000324D9A6801EA050108BF9E60A94208BFAC
:101B50004FF480752E4C2B4B02EA040208BF9D60A7
:101B6000A24204BF4FF480349C60274B984205D0BA
:101B7000264B994202D0264B9A4205D1254B264A44
:101B80001B680121106898471E4CE268636996073C
:101B900007D09D0705D51F4B1F4A1B680021106801
:101BA0009847A169626963698C0709D5900507D5D3
:101BB000190405D5174B184A1B680521106898476A
:101BC000104A9569546915F0040504F4806452695B
:101BD00008D03CB1120405D50E4B0F4A1B680721F3
:101BE00010689847074B5B6955B14CB11B0407D58A
:101BF000BDE87040074B084A1B680221106818476F
:101C000070BD00BF00640040010000040001000836
:101C1000000001105409002050090020FFF784BF84
:101C2000FFF782BF102300F009B8202300F006B8A8
:101C3000302300F003B8402300F000B8EFF3088031
:101C4000042172460A4201D0EFF309809C46244BDE
:101C5000196802680A60043142680A6004318268C7
:101C60000A600431C2680A600431F0C147460F605F
:101C700004314F460F60043157460F6004315F4610
:101C80000F60043102690A60083142690A60043158
:101C900082690A600431C2690A6004310346203354
:101CA0004FF40076324200D0043375461026354298
:101CB00000D148330C46103C2360EFF309820A60E0
:101CC0000431EFF308820A60043172460A6004317D
:101CD000EFF314820A606046014900F097FBFEE7CB
:101CE000A48C000830B50D0E91FAA1F4B4FA84F476
:101CF00091FAA1F10F23B1FA81F1A40003FA04F4DF
:101D00004359890023EA040302FA01F119434151BE
:101D100030BD00007FB5224B04283DD8DFE800F03D
:101D200003101B2631009A691E4842F004029A6192
:101D30009B6903F004030193019B07B05DF804FB6A
:101D40009A69194842F008029A619B6903F00803F6
:101D50000293029BF1E79A69144842F010029A61DB
:101D60009B6903F010030393039BE6E79A6910480D
:101D700042F020029A619B6903F020030493049BC4
:101D8000DBE79A690B4842F040029A619B6903F0D5
:101D900040030593059BD0E7074803F0F1FF00BF20
:101DA0000010024000080140000C014000100140FA
:101DB0000014014000180140058B0008431C10B5B9
:101DC000044604D176220649064803F0A5FE002108
:101DD00000F046FF012004F00F04A04010BD00BF3A
:101DE000268B0008788B000870B504464B1C0E4605
:101DF000218218D0C1F30310FFF78CFF054630464F
:101E0000FFF7DCFF238A084A03F00F0352F8233060
:101E10006561A36105F10803636005F110031435E2
:101E20002060A360E56070BD848F0008B0F91000E9
:101E300001F016B821B9082281694069FFF752BF45
:101E40000122F9E74C232DE9F04100254FF0010E66
:101E500043431F4F1A1D1F4C3A441F448D4203D168
:101E600001461D4803F08CFF3B680EFA05F61E4242
:101E70002AD0136B66690EFA03F3334224D0D2F8EA
:101E800018C063611668FEB1E26833EA020203D14A
:101E9000A26833EA020213D1A26833EA020203D134
:101EA000E26833EA02020DD1DCF80820134214BFC5
:101EB00001210221094B3046BDE8F0411B6818475B
:101EC0000221F7E70121F5E701350432C6E700BF3B
:101ED0005809002000040140B28B00086C0B002060
:101EE00006210846FFF7AEBF05210846FFF7AABF47
:101EF00001210420FFF7A6BF01210320FFF7A2BFA5
:101F000001210220FFF79EBF01210846FFF79ABF7B
:101F100001210020FFF796BF012910B518D11B4CF5
:101F2000838952B1A26803F00F0399401143A16065
:101F3000836843F00103836010BDA26803F00F03C0
:101F4000994022EA0101A160836823F00103F2E7CE
:101F50000229F1D10D4983895AB10122CC6803F0DD
:101F60000F0302FA03F32343CB60836843F00203B9
:101F7000E1E70124CA6803F00F0304FA03F322EA3D
:101F80000303CB60836823F00203D4E7000401401D
:101F90000F22B0F90C3070B599B201F00F0606F0BF
:101FA0000C0404F1804404F5803401F00301A568B9
:101FB00089008A4025EA02050122C3F303138B40FE
:101FC0002B43A3600E4BB24019681143196084681B
:101FD000E50742BF996811439960A10742BFD968DC
:101FE0000A43DA6090F90030002B08DB012259091E
:101FF00003F01F0302FA03F3024A42F8213070BDD6
:102000000004014000E100E02DE9F04F92464A1C37
:1020100085B080460D4661D0314A324F916905F056
:102020000F0941F0010191619269C5F3031002F0BB
:1020300001020392039A0C2202FB09725468062CD7
:1020400049D8DFE804F0043C3E4042444600264EB6
:102050000193FFF75FFE0C2101FB09F157F801E046
:102060007A184C21A8F80C5001254FF0000B614361
:102070001E4F92F908207B5805FA0EF51D43C8F84B
:10208000044088F80020C8F808B07D50132101FBF7
:1020900004E4019B07EB84014B60154BC861C3F856
:1020A00000A0144BC1F834909B681032404643F8AE
:1020B0002260FFF76DFF584605B0BDE8F08F0E4E69
:1020C000C6E70E4EC4E70E4EC2E70E4EC0E70E4EF8
:1020D000BEE70E4EBCE70E4803F052FE0846EBE7A3
:1020E00000100240DC8B0008111F00085809002076
:1020F0006C0B002000ED00E0091F0008011F000824
:10210000F91E0008F11E0008E91E0008E11E000883
:102110008B8B000801210C22838970B503F00F031B
:102120005A4301FA03F3DB431A4CA518A4581A4A80
:102130006E68956801FA04F41D409560D5681D40ED
:10214000D56015682B4013604C237343134AD35852
:10215000A3431ED190F90030002B0CDB5A0903F089
:102160001F03994002F120030D4A42F82310BFF3E8
:102170004F8FBFF36F8F90F90030002B09DB0121E7
:102180005A0903F01F0301FA03F30549603241F8CD
:10219000223070BDDC8B000800040140580900208B
:1021A00000E100E083894C2103F00F020C2370B49E
:1021B000012453430E4AD65843680E4A594304FA41
:1021C00006F5545824EA05045450132101FB036317
:1021D000002102EB830461609C1D0C3302EB84043C
:1021E00002EB83036160596070BCFFF793BF00BFCF
:1021F000DC8B00085809002008B502F053FC0020D1
:1022000008BD0000104B10B51B68104C63B103F003
:1022100059FB03F042FB23681844002323604FF46A
:102220007A73B0FBF3F010BD02F0A2FC23682060CB
:10223000C31A4FF47A70064A9BB211680B441360BC
:10224000B3FBF0F010BD00BF780B0020740B002032
:10225000700B002000B589B003F07AFC052101A8BD
:1022600003F089F8104E114D0424019A039B304667
:102270001A6003F0FDFD019A049B30461A6003F0DA
:10228000F7FD013CF1D10424019A039B28461A6012
:1022900003F0EEFD019A049B28461A6003F0E8FD66
:1022A000013CF1D1E0E700BFF0490200801A0600CE
:1022B00010B5044603F04CFC204604F0EEFF214626
:1022C0000246022000F046FABDE8104003F056BC7A
:1022D00010B5A2B00B460246842101A805F024F8EF
:1022E0008328044605D9052205490DF1830004F031
:1022F000ACFA002C02DD01A8FFF7DAFF22B010BD16
:102300009C8C00080FB407B504A951F8040B019187
:10231000FFF7DEFF03B05DF804EB04B07047000088
:10232000F0B52C4C002526462B4F85B054F82520BF
:10233000294638460135FFF7E5FF0D2DF6D1A36C90
:1023400004F134010293636C24480193236C244C00
:1023500000930EC9FFF7D6FF21682248FFF7D2FF8E
:10236000E16AA26AA36AA06A256BE76B000C01957B
:102370000090C3F307230297D2B21B48FFF7C2FFB6
:10238000A36A1D0603D5616B1848FFF7BBFFA36A5C
:10239000180403D5A16B1648FFF7B4FFF36C1907B7
:1023A00012D51448FFF7AEFF336DDA070FD5124888
:1023B000FFF7A8FFF36C5B074CBF1048104805B04F
:1023C000BDE8F040FFF79EBF0E48FFF79BFF0E48A9
:1023D000EEE700BFE40C0020388D0008468D0008B1
:1023E00000ED00E0958D0008A38D0008F28D000837
:1023F000008E00080E8E00081D8E00084D8E00080D
:10240000598E00083D8E00082A8E000813B5044638
:102410001548FFF777FF302C17D0402C1AD0202C0E
:102420001DD11248FFF76EFF114C1248FFF76AFFEB
:10243000FFF776FF1048FFF765FF00230F4A009370
:10244000D26B0F49204603F0BBFC0E48FFF75AFF42
:102450000D4CEAE70D48FFF755FF0D4CE5E70D4839
:10246000FFF750FF0C4CE0E7A88C0008D18C000867
:102470003E01FF80FE8C0008098D0008E40C00205E
:10248000288D0008E08C00083F01FF80E98C0008DF
:102490004001FF80F48C00083D01FF8008B502F088
:1024A000BBFA01F0F5F802F0A9FA02F0B5FA012240
:1024B000014B1A6008BD00BF780B00200020704758
:1024C000036801221B690021184700220368114696
:1024D0001B69184703681B69184703689B691847FD
:1024E00003689B6A184700290CBF6FF01800002092
:1024F0007047012070471120704770476FF01C0033
:1025000070476FF01500704701207047002070473A
:1025100070470000F8B515460C46064E8F18BC42B1
:1025200005D014F8011B304601F080F8F7E7284683
:10253000F8BD00BF380D002038B58DB215F001048C
:1025400005D0084800F086FE041C18BF0124EB06E5
:1025500005D5044800F094FE08B144F0100420466C
:1025600038BD00BF380D002010B5044604F048F90E
:10257000204610BD10B50C462AB1044801F040F8C1
:102580002070012010BD104610BD00BF380D002086
:1025900038B51D46074B04460360074B1B6833B92B
:1025A000064800F0C7FE2946044800F09DFE20467C
:1025B00038BD00BF708E0008DC0B0020380D0020F5
:1025C000002070470020704708B5012000F096F900
:1025D0000C4A10B513681844EFF30881884205D3FC
:1025E0000C22094B4FF0FF301A6010BD07490C68F0
:1025F00024B10749096821448842F1D21060184685
:1026000010BD00BFF8010020900E0020940B0020A8
:10261000980B00200120704701207047002104F032
:1026200039BD7047704708B5FFF7FBFF08BD08B517
:10263000FFF7F8FF08BD000008B5037803F00302B8
:10264000012A0BD02AB140F28C520549054803F00B
:1026500063FA43F002030370012008BD002008BDA7
:10266000B88E0008078F000808B5037803F003024E
:10267000022A05D040F294520449054803F04CFA6E
:1026800023F0030343F00103037008BDB88E000874
:102690002D8F00083F2870B504462FDC184D55F8E3
:1026A00020305A1C13D1022811DCFFF78BFF0346A0
:1026B00058B92046FFF784FF034630B9114E3378EE
:1026C000BFF35B8FDB0704D50F4B45F8243018466A
:1026D00070BD3046FFF7B0FF0028F5D04FF4165319
:1026E000032202210848FFF753FF3046FFF7BCFFE3
:1026F000064A07490448FFF78DFFE5E70023E6E7B0
:10270000F80000207C0B0020900B0020F00000203F
:102710001125000838B505460024FFF7BBFF0B4B19
:1027200043F8254030B903F08BFC092303604FF0D8
:10273000FF3038BD03685B699847051E04DA03F073
:102740007FFC6D420560F2E7204638BDF8000020AE
:10275000FFF7E0BF38B50C461546FFF79BFF38B9C9
:1027600003F06EFC092303604FF0FF34204638BDB0
:1027700003682146DB682A469847041EF6DA03F010
:102780005FFC64420460EFE708B5131E06DA03F04D
:1027900057FC162303604FF0FF3008BD04D0FFF74D
:1027A000D9FF40EAE07008BD184608BD38B50C46B0
:1027B0001546FFF76FFF38B903F042FC09230360A9
:1027C0004FF0FF34204638BD036821469B682A46F7
:1027D0009847041EF6DA03F033FC64420460EFE726
:1027E000002A08B503DBBDE80840FFF7DFBF03F0B0
:1027F00027FC162303604FF0FF3008BD10B5FFF72C
:1028000049FF044628B903F01BFC09230360204656
:1028100010BD0368DB699847041EF8DA03F010FC6A
:10282000644204600024F2E71FB504220C464023F2
:102830000DEB020101900DF109008DF8083004F054
:1028400004F8214602A803F041FE044630B1019885
:10285000FFF7D4FF10B12046FFF7E0FE204604B09A
:1028600010BDFFF7CBBF38B50C461546FFF712FF7A
:1028700038B903F0E5FB092303604FF0FF3420462D
:1028800038BD036821461B692A469847041EF6DABC
:1028900003F0D6FB64420460EFE7FFF7E4BF10B536
:1028A000FFF7F8FE30B903F0CBFB092303604FF0CC
:1028B000FF3010BD03689B699847041E04DA03F0DB
:1028C000BFFB64420460F2E7002010BD05460A4CDD
:1028D00008B52368986803F0C5FC2368D86803F03E
:1028E000C1FC0120FFF7DBFF0220FFF7D8FF0DB18D
:1028F000FFF7B0FCFEE700BF0402002008B5FFF7B9
:10290000E5FF38B50D46FFF7C5FE044630B903F0C4
:1029100097FB092303604FF0FF3038BD0368DB6984
:102920009847002814BF4FF400534FF400436B60E6
:10293000236820469B6A98472861002038BDFFF72E
:10294000E0BF03F05DBF000010B504460948FEF784
:1029500043F900231946084A52F82300A04208BF51
:1029600042F823100133402BF6D10248FEF734F928
:1029700010BD00BF800B0020F800002010B503241C
:102980000E48FEF729F90E4B53F824206AB10134A2
:10299000402CF9D103F054FB182303600748FEF7DD
:1029A0001BF94FF0FF34204610BD4FF0FF320348B3
:1029B00043F82420FEF710F9F5E700BF800B002054
:1029C000F800002010B50446FFF7D8FF0028A4BF88
:1029D000014B43F8204010BDF800002070B50646BA
:1029E0000C46FFF7EFFF054690B12146FFF71CFFAD
:1029F000044630B9074B53F82520964203D143F8DB
:102A00002500204670BD03F01BFB09230360F8E797
:102A10000446F6E7F80000200EB42DE9F04185B039
:102A20000546FFF7ABFF041E13DB0023294602A86F
:102A3000019302F05DFF02A802F0AAFF1B4D0646BB
:102A400068B903F0FDFA1323036045F824604FF0E2
:102A5000FF34204605B0BDE8F04103B0704702A83E
:102A600002F084FF074602A837B102F088FF019008
:102A7000019B45F82430ECE702F06FFF0646002882
:102A8000DFD0036802A8D3F8088002F05BFF0B9B3D
:102A9000024601A93046C04706460028E8D003F0A8
:102AA000CFFA7642066045F82470D0E7F80000209F
:102AB00073B50E461849054604F0E5FB044620B9F7
:102AC000FFF7E8FD204602B070BD1449284604F027
:102AD000DAFB20B90120FFF7DDFD0124F2E7104900
:102AE000284604F0D0FB20B90220FFF7D3FD0224D2
:102AF000E8E72B78402B07D10422691C0DEB02007C
:102B000003F0A3FE019CDDE726F400412846FFF711
:102B100083FF0446D6E700BF748F00087B8F000850
:102B20006C8F000870477047074B10B59A680749CB
:102B30000748043A52F8044F41F8044F8142F9D152
:102B40004FF000529A6010BD00ED00E0FCFFFF1F47
:102B5000E800002008B5FFF7E7FFFFF79FFCFFF74D
:102B6000E2FF08BD08B5FFF7DDFFBDE80840FEF74E
:102B70007DB830B50D0E91FAA1F4B4FA84F491FA4F
:102B8000A1F10F23B1FA81F1A40003FA04F443592F
:102B9000890023EA040302FA01F11943415130BDCF
:102BA00030B50D0E91FAA1F4B4FA84F491FAA1F1C2
:102BB0000423B1FA81F1A40003FA04F44359890013
:102BC00023EA040302FA01F11943415130BD10B563
:102BD00091FAA1F2B2FA82F291FAA1F394000F22D3
:102BE000B3FA83F3090E4058A24010409B00D8402E
:102BF00010BD70B5164605460C46FFF7E8FF012EDE
:102C00000AD0022E1CD0082829D121462846BDE82A
:102C100070400422FFF7ADBF042804D108222146EA
:102C20002846FFF7A6FFEB68240A94FAA4F223EAE9
:102C30000404B2FA82F2012393401C43EC6070BD9D
:102C4000042804D1082221462846FFF792FFEB68AA
:102C5000240A23EA040394FAA4F4EB6070BD70BD67
:102C6000B0F1FF3F2DE9F3478246894604D13E2269
:102C70007549764802F050FF1FFA80F8744B08F04F
:102C80000F02C0F3031001F0070553F82240FFF7CD
:102C900041F8012D06466F4F40F0C780210E94FA8F
:102CA000A4F3B3FA83F394FAA4F04FF0030EB0FA4E
:102CB00080F072589B000EFA03F322EA03032A46BF
:102CC00080000EFA00FE43EA0E03735021463046A0
:102CD000013DFFF74EFF012D07D819F0080218BF7C
:102CE000042221463046FFF75BFFC9F3011221465B
:102CF0003046FFF77EFFBB6943F00103BB61BB6950
:102D000003F001030193019BA8F10D03012B79D876
:102D1000514A536823F0E06343F080635360A8F1A5
:102D20001308B8F1010F77D86FE0BB69C9F303222C
:102D300043F00103BB61BB6903F001030093009BF7
:102D400082B1531E092B0DD8DFE803F0050E151CC8
:102D5000232C353E454D404A536843F0E06343F031
:102D6000010353600922B1E73B4A536843F0E06333
:102D700043F00203F5E7384A536843F0E06343F059
:102D80000403EEE7344A536843F0E06343F008037A
:102D9000E7E7314A536823F0300343F0E06343F040
:102DA0001003DEE72C4A536823F0C00343F0E063CE
:102DB00043F04003D5E7284A536823F4406343F0C7
:102DC000E06343F40063CCE7234A536843F0E063D5
:102DD00043F44073C5E720494B6843F0E06343F494
:102DE00040634B6072E71C4A536823F4C04343F0CE
:102DF000E06343F48043B4E767221349174839E797
:102E0000002263E7BAF10F0F89D1134A536823F008
:102E1000E06343F00073536002B0BDE8F087012225
:102E200021463046FFF7A5FE57E7032DE4D801A35E
:102E300053F825F0452E00081F2E00082B2D000802
:102E4000012E0008082241E7C48F0008788B000893
:102E5000848F00080010024000000140A394000885
:102E6000431C70B50E4604D188221A491A4802F054
:102E700053FE1A4B00F00F02C0F3031053F8224028
:102E8000FEF748FF21460546FFF7A1FE20F00800A7
:102E9000012807D1F31E022B0DD804222146284613
:102EA000FFF77EFE032E0BD1012221462846BDE806
:102EB0007040FFF79EBE002221462846FFF770FEB5
:102EC000012EF1D0052E01D0022E01D10222ECE715
:102ED0000022EAE7C48F0008788B0008848F00087E
:102EE00030B50C460268284B89B005461A600021AF
:102EF000204605F08BF950BB4FF07E51204605F07F
:102F0000A3F908B14FF07E54E86804F089FF214628
:102F100004F0DEFF04F05AFE1C4B002204F0F8FC23
:102F200004F0A8FE60230193AB682861B0FBF3F0C6
:102F30000023039305930693049307932B7D02903C
:102F4000013B032B1BD8DFE803F012040E10002412
:102F5000DAE70424224601A90B4801F03FFB40B107
:102F60000B4802F00DFF0824F4E70C24F2E70024DC
:102F7000F0E76B7D214604481BB101F0EBFB09B083
:102F800030BD01F0C3FBFAE79C0B00200000E03FDE
:102F90009590000838B5C46894B1006904F040FF0A
:102FA0000546204604F03CFF0146284605F044F85B
:102FB0004FF07E51044605F047F918B9204638BD58
:102FC0000024FBE74FF07E54F8E7000000232DE9D2
:102FD000F04FD0F80080494C87B0009305460E466C
:102FE000C4F80080FFF7D6FF41F21113D8F8202073
:102FF00083461A420BD140F24443D8F820201A42AB
:1030000002BFD8F8003023F00103C8F8003001A84F
:10301000694601F0B9F800222868394BD1B253F85B
:10302000317001328742F9D110B9364802F0A8FE5A
:1030300003EBC1031B79002B3ED101F085F8009012
:10304000049801230099AB602F4B002839D1B1FBC4
:10305000F3F3013B63602C4B4FEA4108B1FBF3FEF5
:10306000002106F1FF3CB8FBF3F88A4663464FF6B1
:10307000FE796268C4F80CC0B3F5803F25D2B2F582
:10308000803F22D2BAF1000F00D0626001B1E3604C
:1030900000231A482361A36001F05AFA30BBEE60A6
:1030A00059462846FFF71CFF2268136843F00103C6
:1030B000136007B0BDE8F08F01F056F80090059856
:1030C000BFE74A00B2FBF3F3C3E7AB685B00AB605A
:1030D00070B90EFB03F2BCFBF3F34B4502F1FF3278
:1030E00009D8B2F5803F06D36260E36007489DE7E8
:1030F00008FB03F2EFE701218A46BDE79C0B0020A5
:10310000AC9000088090000840420F0095900008A5
:1031100030B50D46044685B03249284602F076F9AE
:103120002060013004D12E222F49304802F0F4FCF7
:103130002C49284602F08CF9431C03D132222A493B
:103140002B48F3E7C0F3043323752A4A2368C0F3FE
:103150004040934260751AD1274B9A6942F400624D
:103160009A619B6903F400630093009B28461D4904
:1031700002F004F90023E36023610123A580A3602A
:1031800044F620612046FFF721FF05B030BDB3F1C2
:10319000804F0BD103F50433DA6942F00102DA61A2
:1031A000DB6903F001030193019BDFE7134A9342BC
:1031B0000AD1114BDA6942F00202DA61DB6903F0ED
:1031C00002030293029BD1E70D4A9342CED10A4BF0
:1031D000DA6942F00402DA61DB6903F00403039365
:1031E000039BC3E7948800081490000868900008C7
:1031F000D68A0008002C0140001002400004004064
:103200000008004038B50446084604F00DFE0546A7
:10321000E06804F005FE0146284604F00DFF014673
:103220002046BDE83840FFF75BBE00000FB407B58D
:10323000064B05AA1B680649D868019203F056FCA4
:1032400003B05DF804EB04B0704700BF0402002037
:10325000D49000084368094A9B01D35882B01A6889
:10326000120706D5002201921A6801925A6801924B
:10327000019A1868C0F3401002B07047840D002016
:103280004368034A9B01D3581868C0F3C0107047C5
:10329000840D0020426810B4124904689201545011
:1032A000531882685A60C2689A600269DA6042699B
:1032B0001A61026A9A610022DA84DA619A84DA85F4
:1032C0009A85B0F91A20013205D108225A611846B0
:1032D00010BC01F0F0BAB0F9182001320CBF042282
:1032E0000C22F3E7840D002010B581600C46FFF737
:1032F000D1FF28B12146BDE810400248FFF796BF34
:1033000010BD00BFD4900008094B98420BD0A3F524
:103310007443984209D003F5806398420CBF0220A1
:103320004FF0FF307047002070470120704700BF0A
:1033300000380140F0B50E4685B00446434930469A
:10334000154602F063F842490746284602F05EF847
:103350000146384602F036F82060013004D13D22A3
:103360003C493D4802F0D8FB022E0AD0032D08D07C
:103370003649022002F04AF887421BD1374802F052
:10338000FFFC01272068364B984215D103F55843BE
:103390009A6942F480429A619B6903F480430193E5
:1033A000019BFFF7B1FF0028606023DAA4222949BE
:1033B0002C48D7E70027E5E72B4B98420BD103F5C4
:1033C000E633DA6942F40032DA61DB6903F4003390
:1033D0000293029BE5E7254B9842E2D103F5E433E3
:1033E000DA6942F48022DA61DB6903F48023039313
:1033F000039BD6E71549304601F0C0FF1449284623
:1034000001F0BCFF721C03D001213046FFF728FDFC
:103410006B1C03D001212846FFF722FD4FF4165301
:10342000A36000232683E3602361636123626583D5
:103430002046FFF72FFF3FB101220D4B21461A60B6
:103440000C484C2203F001FA05B0F0BDFC890008DD
:10345000B4890008FE900008529100086E9100089F
:1034600000380140A391000800440040004800409B
:10347000DC0B0020380D0020002808DB0123420966
:1034800000F01F0003FA00F0014B43F822007047E0
:1034900000E100E000280DDB0122430900F01F00DD
:1034A00002FA00F0044A203342F82300BFF34F8FA2
:1034B000BFF36F8F704700BF00E100E0F7B5FFF783
:1034C00023FF071E26DB144E56F8270010B3134CBB
:1034D000BD0163591A68120606D5DB68190603D5C3
:1034E0000F4B01211B68984763591A68920608D54B
:1034F000DB68980605D50A4B00211B6856F82700A3
:10350000984763591A68110704D55A69D20744BF0E
:103510005B68019303B0F0BDE40B0020840D002034
:10352000E00B00200148FFF7C9BF00BF0048004082
:103530000148FFF7C3BF00BF004400400148FFF748
:10354000BDBF00BF00380140034B19604168034B09
:1035500043F82120704700BFE00B0020E40B00205F
:1035600030B409C81E4CA04213D125201D4C1E4D5D
:103570009B01FAB1EA58D368C9B943F02003D3607C
:103580001A4B00F110029B6843F8224030BCFFF751
:1035900073BF174CA04202D1164C2620E7E7164C09
:1035A000A04213BF0024154C27202046DFE743F03C
:1035B0008003E4E7EB58DA6849B922F02002DA60C8
:1035C000DB6813F0800F09D130BCFFF763BF22F036
:1035D0008002DA60DB6813F0200FF4E730BC70473C
:1035E000003801403D350008840D002000ED00E06A
:1035F00000440040313500080048004025350008EF
:1036000038B5054644682846FFF724FE0028FAD05E
:10361000054AA301D358E968586809B9C0B238BD52
:10362000C0F3080038BD00BF840D002070B5064609
:103630000C4645683046FFF723FE0028FAD0054ABD
:10364000F168AB01D35811B9E4B25C6070BDC4F34A
:103650000804FAE7840D002008488546002103E0AD
:10366000074B5B58435004310648074B42189A42B7
:10367000F6D301F063F9FCF77FFDFEE70050002070
:1036800070990008F000002078020020FEE77047E3
:10369000074A08B51368032043F01003136000F0D5
:1036A000D5FA0F20FEF7A8FDFFF7F1FF002008BDB7
:1036B0000020024070470000F7B5002604460D4682
:1036C0000196FEF79FFD236807469A68D20508D544
:1036D0000120A36A84F8246043F02003A36203B0AE
:1036E000F0BD5A68D60503D4DB6A13F4700F3BD0E3
:1036F0003A4B02201E6800F0DDFD2368384A196944
:10370000B6FBF0F01142374A4FD1DE6836490E421F
:103710004BD11969114259D1DA68344B1A4214BF9E
:103720002923142300FB03F6019B9E4220D96B1C26
:1037300005D05DB1FEF766FDC01B854206D3019B37
:1037400001330193F0E7681C0FD045B9A36A032049
:1037500043F00403A362002384F82430BFE7FEF79C
:1037600051FDC01B8542F1D3226813689907EAD541
:103770006FF0120322681360A36A43F40073A3621C
:10378000936803F46023B3F5602F25D1E3681BBB76
:10379000A36A23F48073A362A06A10F480501BD143
:1037A000A36A43F00103A36299E71969114203D1A7
:1037B000D9680E4A11420BD019690D4A114209D13C
:1037C000DB68134214BFFC235423ABE72923A9E78A
:1037D0005423A7E7FC23A5E7002080E7FC01002095
:1037E00024499224922449122449920092244900A7
:1037F000499224000368D86C70470000002373B519
:10380000019390F82430012B74D001234D6880F887
:103810002430062D02684FEA85030C6825D82B4416
:103820001F25566B053B9D4026EA050504FA03F368
:103830002B435363092C4FEA44038D682FD9072685
:103840002344D1681E3B9E4021EA060105FA03F39A
:103850000B43D360A4F11003012B2BD900230022CA
:1038600080F82420184602B070BD0C2D0BD82B44D4
:103870001F25166B233B9D4026EA050504FA03F33A
:103880002B431363D6E72B441F25D66A413B9D404B
:1038900026EA050504FA03F32B43D362CAE7072699
:1038A000116923449E4021EA060105FA03F30B4304
:1038B0001361CFE7104B9A4216D193681B02CDD407
:1038C0009368102C43F400039360C7D10B4B0C4A50
:1038D0001B68B3FBF2F20A2353430193019B002BB5
:1038E000BCD0019B013BF8E7836A43F0200383626D
:1038F0000123B4E70223B5E700240140FC010020C6
:1039000040420F00002373B50193036804469A6890
:10391000D20702D5002002B070BD9A6842F00102C1
:103920009A60124B124A1B68B3FBF2F30193019B9E
:10393000C3B9FEF767FC064623689D6815F00105CC
:10394000E8D1FEF75FFC801B0228F5D9A36A84F852
:10395000245043F01003A362E36A012043F0010303
:10396000E362D8E7019B013BE0E700BFFC010020D8
:1039700040420F0090F8243010B5012B044654D07B
:10398000012380F82430FFF7BDFF002849D1A36A46
:10399000274A23F4407323F0010343F48073A362A6
:1039A0002368934204D123494A6812F4702F2ED120
:1039B000A26A22F48012A2625A68520541BFA26A2A
:1039C00022F4405242F48052A262A26A12F480525F
:1039D0001CBFE26A22F00602E262002284F8242080
:1039E0006FF002021A609A6802F46022B2F5602F4A
:1039F00013D10F4A934205D1A2F58062526812F4A6
:103A0000702F0AD19A6842F4A0029A6010BDA26A8F
:103A100042F48012A2624A68CFE79A6842F48012A8
:103A2000F3E7002384F8243010BD022010BD00BF4E
:103A3000002801400024014038B5036804469A6814
:103A4000D20701D4002038BD9A6822F001029A60A2
:103A5000FEF7D8FB054623689B68DB07F2D5FEF727
:103A6000D1FB401B0228F6D9A36A012043F01003C2
:103A7000A362E36A43F00103E36238BD70B5044614
:103A8000002871D0836A23B9C36280F82430FFF71D
:103A900011FE2046FFF7D0FFA36A13F0100FA36AB0
:103AA00064D1002862D1E16923F48853626823F06D
:103AB000020343F002030A43A168A362E368B1F57D
:103AC000807F42EA430238D0012914BF06464FF4F2
:103AD00080766569012D07D1002B30D1A369013BA8
:103AE00046EA433545F400662368B1F5807F5D689A
:103AF00025F4694545EA06055D609E681D4D05EAA9
:103B0000060545EA02059D6001D0012920D1216901
:103B100001390905DD6A25F470052943D9629968E0
:103B2000154B0B409A4215D10023E362A36A23F0A0
:103B3000030343F00103A36270BD0E46C9E7A36A05
:103B400043F02003A362E36A43F00103E362CBE79F
:103B50000021DFE7A36A23F0120343F01003A362FE
:103B6000E36A43F00103E362012070BD43F01003F8
:103B7000A362F9E7FDF7E1FFFE0E1FFF002373B517
:103B8000019390F824300446012B5AD0012380F889
:103B90002430FFF751FF0546002832D1A36A0220E6
:103BA00023F4885323F0020343F00203A362264B5D
:103BB0001E6800F07FFBB6FBF0F040000190019B17
:103BC0001BBB2046FFF79EFE2268936843F0080364
:103BD0009360FEF717FB064623689A68120718D40D
:103BE0009A6842F004029A60FEF70CFB06462368CE
:103BF0009B685B071FD4A36A23F0030343F0010310
:103C0000A362002384F8243012E0019B013B01935E
:103C1000D5E7FEF7F7FA801B0A28DDD9A36A01254C
:103C200023F0120343F01003A362002384F824302E
:103C3000284602B070BDFEF7E5FA801B0A28D6D9E7
:103C4000ECE70225F4E700BFFC010020074A000270
:103C5000D36800F4E06023F4E0631B041B0C43F022
:103C6000BF6343F400330343D360704700ED00E0CB
:103C700003682DE9F341DB07054610D42B689F0745
:103C80005ED42B68190700F195802B685A0700F164
:103C9000BF80EA69002A40F02D81002014E0904C9A
:103CA000636803F00C03042B07D0636803F00C0374
:103CB000082B0CD16368DE0309D523689C03DDD58E
:103CC0006B68002BDAD1012002B0BDE8F0816B688F
:103CD000B3F5803F10D1236843F480332360FEF7AF
:103CE00091FA064623689803C8D4FEF78BFA801B26
:103CF0006428F7D90320E7E79BB9236823F48033CE
:103D00002360236823F480232360FEF77BFA0646B2
:103D100023689903B2D5FEF775FA801B6428F7D99A
:103D2000E8E7B3F5A02F236803D143F48023236091
:103D3000D1E723F480332360236823F48023CDE785
:103D4000674C636813F00C0F07D0636803F00C0333
:103D5000082B10D16368DA030DD423689B0702D5C2
:103D60002B69012BAFD123686A6923F0F80343EA7A
:103D7000C203236085E72A695A4B6AB101221A609F
:103D8000FEF740FA064623689F07ECD4FEF73AFA9E
:103D9000801B0228F7D9ADE71A60FEF733FA064612
:103DA000236898077FF56DAFFEF72CFA801B022879
:103DB000F6D99FE7AA694A4C4B4BDAB101221A6047
:103DC000FEF720FA0646636A9B070DD54FF4FA52B8
:103DD000464B1B68B3FBF2F3019300BF019B5A1ED5
:103DE0000192002BF9D150E7FEF70CFA801B022854
:103DF000E9D97FE71A60FEF705FA0646636A9F076E
:103E00007FF543AFFEF7FEF9801B0228F6D971E774
:103E1000334CE369D80024D40127E36943F080538D
:103E2000E361E36903F080530093009B304E3368F5
:103E3000D90518D5EB68012B26D1236A43F001037D
:103E40002362FEF7DFF941F288368046236A9B073A
:103E50003FD5002F3FF41DAFE36923F08053E361AA
:103E600017E70027E2E7336843F480733360FEF717
:103E7000C9F980463368DA05DCD4FEF7C3F9A0EB54
:103E800008006428F6D935E7ABB9236A41F28838CF
:103E900023F001032362236A23F004032362FEF765
:103EA000B1F90646236A9807D3D5FEF7ABF9801B14
:103EB0004045F7D91EE7052B236A03D143F00403DD
:103EC0002362BAE723F001032362236A23F0040389
:103ED000B6E7FEF797F9A0EB0800B042B6D909E7BC
:103EE000001002400000424280044242FC010020D7
:103EF00000700040224C636803F00C03082B3FF471
:103F0000E2AE00231F4E022A33602BD1FEF77AF96E
:103F10000746236899011FD42B6AB3F5803F05D16A
:103F20006268A96822F400320A436260696A6268C2
:103F30000B4322F474121343636001233360FEF7D2
:103F400061F9054623689A013FF5A7AEFEF75AF9D5
:103F5000401B0228F6D9CDE6FEF754F9C01B022813
:103F6000D7D9C7E6FEF74EF9054623689B017FF5D2
:103F700094AEFEF747F9401B0228F6D9BAE600BF17
:103F8000001002406000424230B5194B87B002ACCD
:103F900003F11005224618685968083303C2AB4282
:103FA0001446F7D101238DF80430022311498DF80E
:103FB00005304B6803F00C02082A17D1C3F3834283
:103FC00006A80244DB0312F8102C0CD54B680A48F3
:103FD000C3F34043504306AA134413F8143CB0FB08
:103FE000F3F007B030BD05485043FAE70248F8E760
:103FF000B59100080010024000127A0000093D004F
:104000004D4A2DE9F0411368054603F007038B4242
:104010000E4628D32A68910732D4D20738D4464AAC
:10402000136803F007039E4273D32A68434C12F0CF
:10403000040F79D1130706D563682A6923F4605306
:1040400043EAC2036360FFF79FFF63683C4AC3F320
:104050000313D35CD8403B4B18600F20FEF7CCF81D
:104060000020BDE8F081136823F007030B431360C1
:10407000136803F007039942CCD00120BDE8F0811A
:104080002E49A8684B6823F0F00303434B60C4E754
:104090006A682A4C012A23681CD113F4003FECD033
:1040A000636841F2883823F0030313436360FEF72B
:1040B000A9F86B680746012B14D1636803F00C0361
:1040C000042BACD0FEF79EF8C01B4045F5D9032069
:1040D000BDE8F081022A02D113F0007FDFE713F080
:1040E000020FDCE7022B0FD1636803F00C03082BEF
:1040F00095D0FEF787F8C01B4045F5D9E7E7FEF7F6
:1041000081F8C01B4045E2D8636813F00C0FF6D16C
:1041100085E7136823F0070333431360136803F044
:1041200007039E42A9D180E76368E96823F4E0634E
:104130000B4363607EE700BF002002400010024096
:10414000E9910008FC010020044B054A5B68C3F3B9
:104150000223D35C034A1068D84070470010024025
:10416000F9910008FC010020044B054A5B68C3F389
:10417000C223D35C034A1068D84070470010024045
:10418000F9910008FC0100200F2303600B4B5A68D3
:1041900002F0030242605A6802F0F00282605A683C
:1041A00002F4E062C2605B68DB0803F4E063036171
:1041B000034B1B6803F007030B60704700100240BD
:1041C0000020024003682DE9F341D907054620D5B8
:1041D000354CE369DA0032D40127E36943F08053B8
:1041E000E361E36903F080530193019B2F4E336831
:1041F000DB0526D5236A13F4407336D1236A6A6837
:1042000023F44073134323621FB1E36923F0805307
:10421000E3612868830706D5234AA968536823F415
:1042200040430B43536010F010001BD01E4AE96856
:104230005368002023F480030B43536012E00027EF
:10424000D4E7336843F480733360FDF7DBFF8046C7
:104250003368D805CED4FDF7D5FFA0EB080064285D
:10426000F6D9032002B0BDE8F0816A6802F440721A
:104270009342C3D001200E4A236A1060002023F429
:10428000407110602162D907B8D5FDF7BBFF41F23C
:1042900088380646236A9A07B0D4FDF7B3FF801B1F
:1042A0004045F7D9DDE700BF001002400070004034
:1042B0004004424270B50446364B86B002AD03F16D
:1042C00010062A4618685968083303C2B3421546D7
:1042D000F7D101238DF8043002239C428DF805307C
:1042E00049D0102C17D0012C51D140F202312A4A6A
:1042F000136A1940B1F5817F46D003F44073B3F5DA
:10430000007F2DD1536A13F0020F0CBF00204FF431
:10431000FA4006B070BD204B5968186810F08070E4
:10432000F7D0C1F3834206A8024412F8100CCA0366
:1043300041BF5A6806A9C2F34042521844BF12F85E
:10434000141C164A5B684CBFB2FBF1F2144A5B02C4
:1043500002FB00F0DDD403234000B0FBF3F0D8E70C
:10436000B3F5407F13D113684FF2244013F4003F9C
:1043700008BF0020CDE7FFF7F7FE074B5B68C3F3EC
:10438000813301335B00E8E74FF40040C1E70020D0
:10439000BFE700BFC59100080010024000127A007C
:1043A00000093D00036A70B523F001030362036A4C
:1043B000446882690D6822F073022A438D6823F0F5
:1043C00002032B430A4DA8420BD1CD6823F008030A
:1043D0002B438E694D6924F44074354323F0040364
:1043E0002C43446082614A684263036270BD00BF2F
:1043F000002C0140036A70B523F480730362036AE2
:104400004468C2690D6822F073022A438D6823F460
:10441000007343EA05230B4DA8420DD1CD6823F468
:10442000006343EA05238E694D6924F44054354303
:1044300023F4806344EA05144460C2614A68C2639D
:10444000036270BD002C0140036A30B523F4805331
:104450000362036A4468C2690D6822F4E64242EAD4
:1044600005228D6823F4005343EA0533064DA84224
:1044700002BF4D6924F4804444EA85144460C2615B
:104480004A680264036230BD002C01407047022379
:10449000026880F83D30136843F001031360012384
:1044A00080F83D3000207047704700001A4A0368CA
:1044B00090420AD0B0F1804F07D0A2F594329042DA
:1044C00003D002F58062904215D14A6823F0700350
:1044D0001343114A90420AD0B0F1804F07D0A2F5A1
:1044E0009432904203D002F58062904203D1CA68B0
:1044F00023F4407313434A6923F08003134303609A
:104500008B68C3620B688362034B984204BF0B69DC
:104510000363012343617047002C014010B504463A
:10452000A0B190F83D3003F0FF021BB980F83C20A9
:10453000FFF7ACFF0223206884F83D30211DFFF710
:10454000B5FF0123002084F83D3010BD012010BDCF
:1045500010B50446A0B190F83D3003F0FF021BB93E
:1045600080F83C20FFF7A0FF0223206884F83D304C
:10457000211DFFF79BFF0123002084F83D3010BD73
:10458000012010BD036A70B523F010030362036AB3
:10459000446882690D6822F4E64242EA05228D6889
:1045A00023F0200343EA05130B4DA8420DD1CD683B
:1045B00023F0800343EA05138E694D6924F44064B7
:1045C000354323F0400344EA8504446082614A682D
:1045D0008263036270BD00BF002C014038B590F8C3
:1045E0003C300446012B4FF0020025D0012384F813
:1045F0003D0084F83C300C2A18D8DFE802F0071799
:1046000017171E1717172F17171740002068FFF7E7
:10461000C9FE236809699A6942F008029A619A6999
:1046200022F004029A619A690A439A6101230020E8
:1046300084F83D3084F83C0038BD2068FFF7A2FFC5
:10464000236809699A6942F400629A619A6922F4BE
:1046500080629A619A6942EA0122E6E72068FFF7E0
:10466000C9FE23680969DA6942F00802DA61DA6989
:1046700022F00402DA61DA690A43DA61D6E72068D7
:10468000FFF7E2FE23680969DA6942F40062DA6141
:10469000DA6922F48062DA61DA6942EA0122ECE73F
:1046A00010B50124036A8C4023EA04030362036A01
:1046B0008A401A43026210BD10B504460022006809
:1046C000FFF7EEFF2368104A93420DD141F2111219
:1046D000196A114208D140F24442196A114202BFDC
:1046E0005A6C22F400425A6441F21112196A1142C2
:1046F00008D140F24442196A114202BF1A6822F0FE
:1047000001021A60002010BD002C014010B50446C3
:1047100001220068FFF7C4FF2368064A0020934285
:1047200002BF5A6C42F400425A641A6842F0010215
:104730001A6010BD002C0140FFF7E8BF10B504243B
:10474000036A8C4023EA04030362036A8A401A4323
:10475000026210BD10B5044604220068FFF7EEFFA8
:10476000236800205A6C42F400425A641A6842F0EE
:1047700001021A6010BD00002DE9F0470568C2680B
:104780002B69016923F4405313432B618368EA6862
:104790000B43416922F4B05222F00C020B43134345
:1047A000EB606B69826923F4407313436B61404B88
:1047B00081469D424FF0190446D1FFF7D5FC04FB1A
:1047C00000F3D9F804604FF06408B600B3FBF6F3C9
:1047D000B3FBF8F31E01FFF7C7FC6043D9F80430C0
:1047E0009B00B0FBF3F7FFF7BFFC6043D9F8043040
:1047F0009B00B0FBF3F3B3FBF8F308FB13731B014F
:104800003233B3FBF8F303F0F007FFF7ADFC60437E
:10481000D9F804209200B0FBF2FAFFF7A5FC604340
:10482000D9F804309B00B0FBF3F3B3FBF8F308FBBB
:1048300013A31B013233B3FBF8F303F00F033B4325
:104840003344AB60BDE8F087FFF77EFC04FB00F368
:10485000D9F804604FF06408B600B3FBF6F3B3FB7D
:10486000F8F31E01FFF770FC6043D9F804309B0099
:10487000B0FBF3F7FFF768FC6043D9F804309B0006
:10488000B0FBF3F3B3FBF8F308FB13731B013233F4
:10489000B3FBF8F303F0F007FFF756FC6043D9F8D9
:1048A00004209200B0FBF2FAFFF74EFCB7E700BF1E
:1048B00000380140704710B5044640B390F83930D5
:1048C00003F0FF021BB980F83820FFF7F3FF242321
:1048D000226884F83930D368204623F40053D3602B
:1048E000FFF74AFF236800201A6922F490421A61F8
:1048F0005A6922F02A025A61DA6842F40052DA60F8
:104900002023E06384F8393084F83A3010BD012068
:1049100010BD7FB50F23022101934FF48062002365
:1049200001A80291039304920593FFF769FBB0FA83
:1049300080F0400907B05DF804FB00000F4B1A68D7
:1049400042F001021A6059680D4A0A405A601A681A
:1049500022F0847222F480321A601A6822F48022D3
:104960001A605A6822F4FE025A604FF41F029A60DD
:104970004FF00062034B9A60704700BF0010024086
:104980000000FFF800ED00E0012310B58AB00093AD
:10499000A0B94FF480330193022307934FF480337F
:1049A000002408934FF4E013684602940993FFF73C
:1049B0005FF930B9FFF7ADFF0AB010BD4FF4A02387
:1049C000E9E72046F8E7032310B58AB000930123F6
:1049D0000493102305930223002407934FF46013DC
:1049E0006846019408940993FFF742F918B9FFF754
:1049F00090FF0AB010BD2046FBE7000008B501207B
:104A0000FFF7C2FF28B9FFF7DEFF10B9014801F038
:104A1000B7F908BDD5910008114A124B516801F051
:104A20000C01042901D008290AD00F4919605268E5
:104A30000E49C2F30312895C1A68CA401A607047B3
:104A400051685068C1F38341C00301F1020102D4EF
:104A500007484143EAE750688003F9D40248F8E781
:104A600000100240FC01002000127A00E9910008C9
:104A700000093D00074B084A13601A69910707D5E2
:104A8000DA68920704D56FF002021A6100F01EBFC7
:104A9000704700BF00080040480E002000487047E3
:104AA00004920008224B37B5DA69224C42F0040226
:104AB000DA61DA69002502F004020192019A1A69AA
:104AC00042F004021A611A6922F004021A61FFF727
:104AD000A3FF194B194A23604FF6FF73E360184B8D
:104AE00020461B682561B3FBF2F3013B6360A560C0
:104AF0006561A561FFF712FD29462046FFF71CFE00
:104B0000104B114A9B682046C3F8B8204FF08042F2
:104B10000E4B1A60FFF7BBFC2268D36823F0020338
:104B2000D3600B4B1D600B4B1D6003B030BD00BF4D
:104B300000100240480E00200008004040420F00D4
:104B4000FC01002000ED00E0754A000800E100E0F3
:104B5000740B0020700B0020044800210268D36809
:104B600023F00203D360FFF7E7BD00BF480E00202B
:104B7000014B586A704700BF000800406FF0020206
:104B8000044B1B6858631A61DA6842F00202DA606B
:104B9000704700BF480E00206FF00202054B1B68F3
:104BA0001A615A6942F002025A61DA6842F002025E
:104BB000DA607047480E0020034B1A68D36823F070
:104BC0000203D360704700BF480E00206FF002025E
:104BD000014B1B681A617047480E002008B5002180
:104BE0000348FFF769FDBDE80840FFF7E5BF00BFD8
:104BF000480E00200346024A2030FDF705BA00BFE8
:104C0000794D0008F8B50546044610260F46124BAC
:104C10001C2245F8043B0021284601F021FE3246C3
:104C2000002104F1200001F01BFE3246002104F1B6
:104C3000300001F015FE3246002104F1400001F081
:104C40000FFE39462046FFF7D5FF2846394600F0CB
:104C50007FFB2046F8BD00BF6C92000810B50446EB
:104C6000074B40F8203BFDF79DFA04F14000FBF7AD
:104C700085FF04F13000FBF781FF204610BD00BF27
:104C80006C92000810B50446FFF7E8FF2046FDF7D8
:104C900058FE204610BD884238B504460D460AD05D
:104CA000FBF76CFF3CB1EB681BB15B682946204603
:104CB0009847EB68E360204638BDF0B50F460446E0
:104CC00085B000F045FFFD6804F13006203465B181
:104CD00039463046FFF7DFFF012201212046FDF76C
:104CE0001BF900F04BFF05B0F0BD102229466846C5
:104CF00001F0B6FD69463046FFF7CDFF6846FBF789
:104D00003DFF2A46E9E7F0B50F46044685B000F0BE
:104D10001FFFFD6804F14006203465B13946304676
:104D2000FFF7B9FF012202212046FDF7F5F800F058
:104D300025FF05B0F0BD10222946684601F090FD20
:104D400069463046FFF7A7FF6846FBF717FF2A467C
:104D5000E9E70000C36810B52BB940F23A220449D4
:104D6000044800F0D9FE1B68BDE81040184700BF9A
:104D70000C9200085F920008012908B502D00229B0
:104D800006D008BDC36B13B13030FFF7E3FF08BD99
:104D9000C36C002BFBD04030F7E77047A0F1B000A8
:104DA000FFF7FBBFA0F1B000FFF7F7BF00F076B848
:104DB000A0F1B000FFF7FABF00F073B8A0F1B000A7
:104DC000FFF7FABF10B5044600F07AF8002104F1AD
:104DD000B00000F03DFE064B204603F108022260C1
:104DE00003F128028833C4F8B020C4F8B43010BDF1
:104DF000749200087047704710B4446800F10801CD
:104E00000EC954B103F0010002B930B15B1008B112
:104E1000E0588258E01810BC104710BC70470000E2
:104E200000EB01138C33DA6810B57AB100EB011096
:104E3000D0F898202AB940F23A220549054800F0F6
:104E40006BFE12681846BDE81040104710BD00BF49
:104E50000C9200085F92000838B5054655F8403BB3
:104E600004461B6898472846FEF7F4F90546236870
:104E700020465B689847284638BD38B5054655F842
:104E8000403B04461B6898472846FEF7F9F905465B
:104E9000236820465B689847284638BD4030FEF7B7
:104EA000AFBB10B50C464030FEF7C0FB204610BD2E
:104EB000C36810B504460BB19B689847204610BDE7
:104EC0002DE9F04F002504469B46894692462C4B1F
:104ED00085B003602B4BA06029464360C560056127
:104EE00045618561057745771022203001F0B8FCD7
:104EF00004F140062946102204F1300001F0B0FC14
:104F000004F18C0829464C22304601F0A9FC04F13A
:104F10009C0729461022404601F0A2FC2946102297
:104F2000384601F09DFC10222946C4F8ACB0684612
:104F300001F096FC69464046FFF7ADFE6846FBF778
:104F40001DFE10222946684601F08AFC6946384653
:104F5000FFF7A1FE6846FBF711FE52464946304670
:104F6000FEF7E8F9D4F8AC103046FEF7BDF930464C
:104F700022460549FEF7E8FA204605B0BDE8F08F65
:104F80000C930008F94D0008214E00082DE9FF415F
:104F9000064688461746054656F8403B3C011B68C6
:104FA000984700F0D5FDD8F80C308C342C44ABB1C8
:104FB000E3680BB900F01CFF41462046FFF76BFE8B
:104FC000012239463046FEF7CBFA00F0D7FD2B68B8
:104FD00028465B68984704B0BDE8F081E3680BB1F0
:104FE00000F028FF10220021684601F039FC6946D4
:104FF0002046FFF750FE6846FBF7C0FD0022E0E7C1
:105000007FB504461A4B102203600021684601F068
:1050100027FC002269462046FFF7B8FF6846FBF7E9
:10502000ADFD10220021684601F01AFC01226946FC
:105030002046FFF7ABFF6846FBF7A0FD14F18C0696
:1050400008D004F1AC05B54204D0103D2846FBF76A
:1050500095FDF8E704F13000FFF72AFF04F1200086
:10506000FFF726FFA06900F03BFC204604B070BDAE
:105070000C93000810B50446FFF7C2FF2046FDF769
:1050800060FC204610BD70B5D0E90823D0E9024588
:10509000064612196B4100F01BF9736B2BB106F138
:1050A00028001B68BDE87040184770BDD0B50446A5
:1050B00016461F4600F04CFD204600F013F9C4E9E7
:1050C0000867A06900F0E9FB321847EB01032046AE
:1050D00000F0FEF8BDE8D04000F050BDF8B5044641
:1050E0001F460D46164600F033FD636B13B994F866
:1050F00038306BB9294604F12800FFF7CCFD324661
:105100003B462046FFF7D2FFBDE8F84000F036BD31
:1051100000F06EFEEEE71FB5044600F019FD2046D4
:1051200000F0E0F8636B13B194F8383083B91022C3
:105130000021684601F094FB694604F12800FFF75E
:10514000AAFD6846FBF71AFD00F018FD04B010BD7B
:1051500000F070FEEBE700001FB5436B044600F162
:10516000280113B15B6868469847636B2046039338
:10517000FFF7D1FF039B2BB940F23A2205490648BD
:1051800000F0CAFC1B68684698476846FBF7F6FCC7
:1051900004B010BD0C9200085F92000810B50446E0
:1051A00000F0D6FC23681BB1237F0BB100F042FE58
:1051B0000023236000F0E2FC204610BD10B5044639
:1051C00000F0C6FC236853B9237F0BB100F010FE3A
:1051D000A06900F062FB0123C4E902012360BDE87D
:1051E000104000F0CBBC38B5044600F0B1FC236899
:1051F00073B1A06900F051FB04F10805D5E9004541
:10520000041B61EB050500F0B9FC2046294638BDBA
:1052100000240025F7E770B5064600F099FCD6E9B2
:1052200004453046FFF7DFFF24184D4100F0A6FC8F
:105230002046294670BD08B5FFF7EDFF08BD08B54B
:10524000FFF7E9FF4FF47A72002303F007F808BD77
:1052500010B5044600F07CFCA06900F01EFB0022A3
:105260000023C4E90201C4E90423BDE8104000F0B2
:1052700085BC002310B5002203600023C0E902238F
:10528000C0E90423044600F01DFB0123A06123773D
:105290002046FFF7DDFF204610BD03689B681847D6
:1052A000094B10B5002203600023C0E9022300234C
:1052B00003614361044600F005FB0449A06100F06E
:1052C00069FA204610BD00BF4C9300089B520008AD
:1052D00007B5009000F10801806900F09AFA03B068
:1052E0005DF804FB00F10801806900F0BBBA000022
:1052F00010B50446024B0360FFF7F4FF204610BDD3
:105300004C93000870B50E4604461546FCF76CFD3C
:10531000013609D020460021FCF78CFD29462046A5
:10532000BDE87040FCF782BD70BD38B504460D463F
:1053300003685AB18268204613600121FCF77AFDA8
:1053400029462046BDE83840FCF770BDC268F2E748
:105350000022FFF7D7BF70B50E4604461546FCF78E
:1053600043FD013606D02A462046BDE870400021A4
:10537000FFF7DBBF70BD0022FFF7EDBF13B504469A
:1053800001300FD102B010BD9C420AD1204689687D
:10539000FDF766FC0021204602B0BDE81040FDF795
:1053A0005FBD0C31B1F900305A1CEDD1002322460B
:1053B00000930249024800F003FD00BFA7930008D4
:1053C00030010180884207B502460AD0431C08D04C
:1053D000013105D0002305490093054800F0F0FC99
:1053E0000146084603B05DF804FB00BF7693000851
:1053F00030010180B1F900305A1C01D118467047C4
:10540000834201D1486870470C31F3E7431C07B56C
:105410000AD0FFF7EFFF431C06D10023024600939A
:105420000349044800F0CCFC03B05DF804FB00BF66
:105430008793000830010180B1F900305A1C01D176
:1054400018467047834201D1886870470C31F3E7F2
:10545000431C07B50AD0FFF7EFFF431C06D100231A
:10546000024600930349044800F0AAFC03B05DF82B
:1054700004FB00BF58930008300101802DE9F74F6D
:10548000D0F804A004469AF83A30002B46D10368BD
:105490005B68984763681B6A98423FD0DAF820300F
:1054A000DAF80840A0EB0308CAF82000DAF80C305C
:1054B000314808EA0308844246464FF0000727D0E7
:1054C000DAE90A239AF83BB0A8FB0089CDE900236A
:1054D0000025BBF1000F2BD05A464046494602F04A
:1054E000F9F9DDE9002312EB080243EB09039046CA
:1054F0005A46994606460F4602F0F8F9B8EB000006
:1055000069EB0101A94208BFA0420AD2CAE90A0117
:10551000DAE90C23B6185F41CAE90C6703B0BDE8AD
:10552000F08F013647F10007001B61EB0501EDE745
:1055300022462B464046494602F090FE2246064649
:105540000F46404649462B4602F088FEDDE90089B9
:1055500018EB020849EB0309A94508BFA04502D290
:10556000CAE90A89D4E7013647F10007B8EB040815
:1055700069EB0509F4E700BF40420F00824206D9FB
:105580008A420BD9884294BF00200120704788428C
:1055900006D98A428CBF0020012070470120704745
:1055A000002070472DE9F14F4768064697F83A30DA
:1055B000002B60D197F83930002B5CD1FFF75EFFEC
:1055C00075686B68002B59D0D5E90C89D3E90001C7
:1055D000894508BF804505D333685B6901B0BDE8E4
:1055E000F04F1847B0EB080861EB0909D5E906232D
:1055F0004B4508BF42452C6906D3AB68254A934208
:105600000FD1444528BF44462A6A3B6A1444EA68DD
:105610001440A34221D14FF484721F491F4800F067
:105620007BFA95F83B20DFF878A04FF0000B7AB1B9
:105630004046494602F05AF910EB0A0041EB0B01D3
:10564000144A002302F00AFE844228BF0446DBE726
:10565000A3FB080103FB0911EEE7336820461B6931
:10566000984733685B68984722460146386AFFF7D7
:1056700085FF0028B0D101B0BDE8F08F3B69386AE2
:10568000FA681844336810401B6901B0BDE8F04F58
:10569000184700BF40420F00B8930008029400086A
:1056A0003F420F002DE9F04F436885B093F8382052
:1056B0000546002A64D193F83A30002B60D1036884
:1056C0001B6898472B68DB699847076827B92D2224
:1056D0002D492E4800F020FA1F23012202FA03F17F
:1056E0008F425FFA83FB02D0013BF7D19B46D0F893
:1056F00004A0AAF104031C2B01D93B22E8E70726EA
:105700009E40002317F1FF30214C43F1FF313A4610
:10571000C4FB060102F0A2FD00236C682A68236026
:10572000636052680393CDE9000190474FF0000891
:105730004FF0000920626C685246C4E90A89A760EC
:1057400084F83BB00120002102F0D0F8DDE900230D
:10575000C4E90623039B013884F8393084F83A30D1
:105760000123E06026612846C4E90C8984F83830BA
:10577000FFF784FE284605B0BDE8F04FFFF712BFE3
:1057800005B0BDE8F08F00BFB8930008A3940008EF
:1057900040420F0038B505460C46FFF783FF00F086
:1057A000D7F96B681C60BDE8384000F0E7B970B508
:1057B000044600F0CDF92368DB689847636893F8E6
:1057C0003A201AB1BDE8704000F0D8B9012283F840
:1057D000392063685B68A3B12046FFF74FFE656818
:1057E0006E68D5E90C01D6E90023994208BF9042C2
:1057F00007D3F3686B602B68002BEAD0B06898473A
:10580000E7E700226368204683F83920FFF7CAFEE5
:10581000D8E72DE9F04180460C4616461F46069D06
:1058200000F096F94046FFF729FEA5600025D8F85C
:105830000420C4E9006753684BB9E36085B954603C
:105840004046FFF7AFFEBDE8F04100F097B9D3E95D
:1058500000018F4208BF8642EFD31D46DB68EBE7AD
:10586000EC60F0E738B505460C4600F071F96A685F
:105870005368A34209D1DB6828465360FFF792FEC4
:10588000BDE8384000F07AB91346002BF8D0DA684A
:105890009442F9D1E268DA60F2E738B50446FFF7DE
:1058A00001FF00F055F92046FFF7E8FD6368D3E9F2
:1058B0000C4500F063F92046294638BD08B5FFF7CE
:1058C000ECFF08BD0048704728940008024B1B6895
:1058D0000BB10248184770470002002028940008C6
:1058E000024B1B6803B11847704700BF400C0020F3
:1058F00070B50E4600250446056045600E493046E9
:1059000001F0D3FC29463044206023681A782F2AFE
:1059100007D10133236051B92A220849084800F011
:10592000FBF8002AF7D0013301312360EDE700F0E6
:1059300037FB6060204670BD509400085294000808
:105940009C94000800687047406808B520B100F0DA
:10595000CFFA431E5842584108BD10B50446FFF720
:10596000F3FF10B1606800B1043810BD406808B59D
:1059700020B100F0BDFAB0FA80F0400908BD10B5C2
:105980000446FFF7F3FF10B1606800B1043810BDA2
:105990004068003018BF01207047002070477047F2
:1059A0007047F8B50E46036804461B6D8F183546E0
:1059B0009847BD4207D0236815F8011B9B6C204611
:1059C00098470130F5D1236820465B6D9847A81BA6
:1059D000F8BDF8B50E46036804461B6D8F183546B2
:1059E0009847BD4208D023682046DB6C9847431C8B
:1059F00002D005F8010BF4E7236820465B6D984759
:105A0000A81BF8BD00207047704700207047002099
:105A10007047000010B50446044B0360503340F853
:105A2000043F00F085FA204610BD00BFB094000886
:105A3000A0F10400EEE700BF10B50446FFF7EAFF4F
:105A40002046FCF77EFF204610BDA0F10400F3E7DE
:105A500013B504460E4B002240F8043B00F04AFA0E
:105A60000C4B0D4923606033636000232046636163
:105A7000FCF7B4FF0346606128B90090024607496D
:105A8000074800F09DF9FCF7C9FD204602B010BDA3
:105A90008498000828950008089500080B950008D0
:105AA0001901018010B50446064B03F10802683362
:105AB00002604360406900F01BFB2046FFF7AAFF2D
:105AC000204610BD2095000838B504460D460368F1
:105AD0001B6D984701220021606900F02DFD61696E
