:020000040800F2
:10000000005000205126000885260008ED0B00084E
:10001000F30B0008F90B0008FF0B000800000000BC
:10002000000000000000000000000000852600081D
:1000300085260008000000008526000885260008A7
:1000400085260008852600088526000885260008E4
:1000500085260008852600088526000885260008D4
:1000600085260008852600088526000885260008C4
:1000700085260008852600088526000885260008B4
:10008000852600088526000885260008E50B00085F
:10009000E90B000885260008F10A000885260008FB
:1000A0008526000885260008852600088526000884
:1000B0008526000885260008852600088526000874
:1000C0008526000885260008852600088526000864
:1000D0008526000885260008852600088526000854
:1000E00085260008852600088526000800000000F7
:1000F0000000000000000000000000000000000000
:1001000000000000000000005FF808F110B5054C89
:10011000237833B9044B13B10448AFF300800123B3
:10012000237010BD78020020000000002480000829
:100130000C4B43B10C4810B50C49AFF300800C4890
:10014000036823B910BD0A48036833B97047094BE7
:10015000002BF7D0BDE810401847064B002BF5D018
:10016000184700BF00000000248000087C02002027
:100170007402002000000000154B002B08BF134B39
:100180009D46A3F5803A00218B460F461348144A3A
:10019000121A04F0A5FF0F4B002B00D098470E4B0E
:1001A000002B00D098470020002104000D000D48CE
:1001B000002802D00C4801F013FA04F0D1FE200010
:1001C000290001F0C7FC01F07DFB00BF0000080022
:1001D0000050002000000000451B000878020020AD
:1001E000F00C0020E11500080000000043681A68C8
:1001F00003681A4214BF01200020704703681847A3
:1002000008B10B680360704770470000014803F0B5
:100210005FBC00BF6806002008B5034803F04BFC34
:10022000024B186008BD00BF680600206C07002064
:10023000F8B50A4E0A4D06F1B007304603F04CFA05
:1002400058B1EC783846E4B2631CDBB2EB7004F0D2
:1002500091F82C44C0B2E071EFE7F8BD9C06002095
:100260001A04002010B50446074BB03003F12002F9
:1002700040F8B03C80330260436004F053F82046FD
:1002800003F0FEFA204610BD3C790008A0F1B00052
:10029000E8E7A0F1B400E5E710B5044604F098F8EB
:1002A000237E1BB104F006FA0023237604F0A6F89F
:1002B000204610BD024BDA681B681360704700BF10
:1002C000FC03002038B504460D461C22002104F032
:1002D00007FF2046294603F08EFC204638BD38B57E
:1002E000002304460D46037604F072F820462946A2
:1002F00001F006FF04F082F8204638BD38B5044608
:100300000D4604F065F82946204601F073FFBDE86C
:10031000384004F073B8000038B5204C2378032B24
:1003200039D8DFE803F00209101B1D48FFF75EFF14
:1003300008B10323237038BD1948FFF757FF002881
:10034000F9D10223F6E71648FFF750FF054610BB28
:10035000144803F0B4FB2570606038BD1048FFF707
:1003600045FFB0B101250F48257003F0A8FB636875
:10037000C01A0D4BA0601A780AB91D7038BD012A49
:1003800002D102221A7038BD022A0CBF03220022B9
:10039000F8E7207038BD0123CCE700BF90060020AD
:1003A0009402002048060020880600200E480F4ACC
:1003B000037810B513F0010F11680DD040F6FB045F
:1003C0002D31A142116002D96FF30003037011684F
:1003D0000748FFF793FF10BD2D39B1F5FA7F116083
:1003E000F5D843F00103F1E789060020F40000206E
:1003F000E0030020012812D1164B9A681B68136095
:10040000154BDA681B681360012915D1134B9A68E4
:100410001B681360124BDA681B681360704710B9D1
:100420000C4BDA68EAE70228EED10A4BDA681B685F
:100430001360094B9A68E5E711B9084BDA68E7E7FA
:100440000229EBD1054BDA681B681360044B9A68EC
:10045000E2E700BF700300208C0300203803002077
:100460005403002008B5094803F047F968B1084B68
:1004700008489A79D2B2511CC9B29971134493F8C1
:100480000711BDE8084003F05FBF08BD9C060020CF
:100490001A0400204C070020552370B58EB08DF84B
:1004A00004304E238DF8053045238DF80630522355
:1004B0008DF8073000238DF808303A238DF8093085
:1004C000274B93F80822D2B2A32A1FD0F02A35D1A5
:1004D0008DF80A200D228DF80B20032208258DF8B7
:1004E000082000210846CAB2AA4201F101012DDA12
:1004F0000EAC224412F8346C5A797040D2B2541CBB
:10050000E4B21A445C7182F80761ECE78DF80A20C6
:10051000144A154912680B250A60C2F307218DF8A9
:100520000B208DF80C10C2F30741120E8DF80E202F
:1005300006228DF80D108DF80820D2E7DD228DF807
:100540000A20022207258DF80820CAE75A79D2B27C
:10055000511CC9B25971134483F807010EB070BD24
:100560001A0400206C0700208C060020F8B54C4EC1
:100570004C4D34463279F3789A4200F090802B78D3
:10058000062B5DD8DFE803F004121E29343F5E001D
:100590002379DBB25A1CD2B222712344DB79552B6A
:1005A000E8D101232B7000236370E3E72379DBB2EA
:1005B0005A1CD2B222712344DB794E2B3CD1022348
:1005C0002B70D7E72379DBB25A1CD2B222712344B5
:1005D000DB79452B30D10323F2E72379DBB25A1CB8
:1005E000D2B222712344DB79522B25D10423E7E7D1
:1005F0002379DBB25A1CD2B223442271DA792A4B16
:100600001A700523DCE72379DBB25A1CD2B22271BF
:100610002344DB793A2B0FD106232B70224B93F91D
:10062000003083F03602D2B262700122DBB284F86D
:1006300007321E4B1A709DE72379013BDBB2237111
:100640000023BDE7184991F90030012B15DD17484B
:1006500090F90020571C0770207922442044C0796B
:10066000C0B282F807022279D2B2501CC0B2207107
:100670002244D279607842406270013B5BB2002B29
:100680000B703FF777AF002362782B7023792344F8
:10069000DB799A427FF46EAFFFF7FEFE6AE7F8BDA2
:1006A0001A0400204106002019040020180400202C
:1006B000C36810B504460BB19B689847204610BD2F
:1006C00038B505460446064B45F8283B03F063F968
:1006D0002846FFF7EDFF204603F04AFA204638BDD2
:1006E000E479000810B50446FFF7EAFF20464021F0
:1006F00004F0E3F8204610BD10B50446024B036039
:10070000FFF7DEFF204610BDF879000838B50D462A
:1007100004461022002104F0E3FC2B682360014B07
:10072000E36038BD946F000880B588B003F050FED8
:100730000521714801F071FD03F060FE03F048FEF1
:1007400005216E4801F069FD03F058FE01210846BD
:10075000FFF750FE4FF4FA7003F0D9FF022108466C
:10076000FFF748FE4FF4FA7003F0D1FF002108466E
:10077000FFF740FE4FF4FA716148FFF7BFFD4FF4F9
:10078000C87003F0C4FF40F6FC015D48FFF7B6FDFA
:100790004FF4C87003F0BBFF4FF4AF615848FFF748
:1007A000ADFD4FF4AF62574B57481A600122574BCB
:1007B000574F1A7003F042F9564803F03FF9564B71
:1007C00008A941F8183D04A8FFF7A0FF002204A9DA
:1007D000524803F01BF804A8FFF76AFF504B08A922
:1007E00041F81C3D04A8FFF791FF04A94D4802F011
:1007F000A4FE04A8FFF75CFF4B4B08A941F8203D7D
:1008000004A8FFF783FF04A9464802F0BCFE04A831
:10081000FFF74EFF0023B846444D3B4C2B7020465B
:1008200003F04DF93B68C01A962820D9404B08A91F
:100830009A681B6804A813603E4B41F8143DFFF70B
:1008400065FF04A90A2200233B4803F087F804A8A7
:10085000FFF72EFF39490846FFF7C8FCE0B98B685F
:100860000A6820461A6003F02AF9C8F800002046FA
:1008700003F025F9324E3368C01A322805D9FFF744
:100880004BFD204603F01BF930602B78032B30D84A
:10089000DFE803F021041717CB68E1E7294B1B6859
:1008A000B3F5E16F0FD9204603F009F9264E3368FE
:1008B000C01A322805D9FFF779FD204603F0FFF86A
:1008C0003060002104E0B3F5AE7F34BF0221012186
:1008D0000846FFF78FFD1D4E3279F3789A4201D01A
:1008E000FFF744FEB27973799A4298D0FFF7BAFDC8
:1008F00095E700232B70EEE7000300201C03002087
:10090000E0030020F40000204806002090060020AC
:100910007407002068060020310200089C060020B1
:100920000D020008B002002019020008880600200D
:10093000FC030020B502000878070020A80300206F
:10094000680700206C070020700700201A040020B0
:1009500010B50446FFF786FC2046CC2103F0ADFF1E
:10096000204610BDA0F1B000F2E7A0F1B400EFE71F
:1009700010B50446FFF7C0FE2046402103F09DFF5E
:10098000204610BD70B52D21424E4348FFF79AFC1A
:1009900019214248424CFFF795FC424D1A2130463E
:1009A000FFF79DFC3046404E2246294600F016FED9
:1009B00008213046FFF793FC30463C4E224629463C
:1009C00000F00CFE15213046FFF789FC2946384D12
:1009D0002246304600F002FE4FF4E1330A2209219C
:1009E000284602F02FFE22463249284600F0F6FD46
:1009F0001E213148FFF766FC1F213048FFF762FCDB
:100A00002F4D16212F48FFF75DFC17212E48FFF7C9
:100A100059FC1C21284602F035FD22462B49284668
:100A20002B4D00F0DBFD1D212A48FFF74BFC1C225B
:100A30000021284604F054FB2846274D142103F0DA
:100A4000C7F8264E284603F054F82846244D22467F
:100A5000314600F0C3FD284603F04BF82846214DEF
:100A60002246314600F0BAFD284603F059F810221C
:100A7000002105F1280004F033FB012385F838300C
:100A8000194B22462B602846BDE87040174900F0FC
:100A9000A5BD00BFE0030020A8030020C403002080
:100AA000F000002099020008000300201C03002031
:100AB0009C06002065020008540300203803002033
:100AC000B0020020700300208C030020DD340008F9
:100AD00094020020FC030020480600201D3A000874
:100AE0006806002078070020F8790008F906000859
:100AF000364B70B55A69D2072AD59868344E996832
:100B00003040B04208BF0126324D9A6801EA050123
:100B100008BF9E60A94208BF4FF480752E4C2B4B36
:100B200002EA040208BF9D60A24204BF4FF4803471
:100B30009C60274B984205D0264B994202D0264B09
:100B40009A4205D1254B264A1B6801211068984717
:100B50001E4CE2686369960707D09D0705D51F4BB9
:100B60001F4A1B68002110689847A1696269636980
:100B70008C0709D5900507D5190405D5174B184AD8
:100B80001B68052110689847104A9569546915F04B
:100B9000040504F48064526908D03CB1120405D500
:100BA0000E4B0F4A1B68072110689847074B5B697B
:100BB00055B14CB11B0407D5BDE87040074B084A3E
:100BC0001B6802211068184770BD00BF0064004018
:100BD000010000040001000800000110BC07002013
:100BE000B8070020FFF784BFFFF782BF102300F093
:100BF00009B8202300F006B8302300F003B84023E2
:100C000000F000B8EFF30880042172460A4201D0D8
:100C1000EFF309809C46244B196802680A6004318E
:100C200042680A60043182680A600431C2680A605E
:100C30000431F0C147460F6004314F460F60043164
:100C400057460F6004315F460F60043102690A6045
:100C5000083142690A60043182690A600431C2695C
:100C60000A600431034620334FF40076324200D04C
:100C7000043375461026354200D148330C46103CEB
:100C80002360EFF309820A600431EFF308820A60FF
:100C9000043172460A600431EFF314820A60604640
:100CA000014900F097FBFEE7F072000830B50D0E29
:100CB00091FAA1F4B4FA84F491FAA1F10F23B1FAF4
:100CC00081F1A40003FA04F44359890023EA0403E0
:100CD00002FA01F11943415130BD00007FB5224BAA
:100CE00004283DD8DFE800F003101B2631009A6984
:100CF0001E4842F004029A619B6903F004030193C9
:100D0000019B07B05DF804FB9A69194842F008029C
:100D10009A619B6903F008030293029BF1E79A69C9
:100D2000144842F010029A619B6903F01003039388
:100D3000039BE6E79A69104842F020029A619B699A
:100D400003F020030493049BDBE79A690B4842F00D
:100D500040029A619B6903F040030593059BD0E72D
:100D6000074803F04DFC00BF00100240000801409E
:100D7000000C014000100140001401400018014027
:100D800050710008431C10B5044604D17622064970
:100D9000064803F001FB002100F05AFF012004F097
:100DA0000F04A04010BD00BF71710008C37100089E
:100DB00070B504464B1C0E46218218D0C1F30310B7
:100DC000FFF78CFF05463046FFF7DCFF238A084A11
:100DD00003F00F0352F823306561A36105F10803A6
:100DE000636005F1100314352060A360E56070BDF9
:100DF00038760008B0F9100001F02AB821B90822AD
:100E000081694069FFF752BF0122F9E74C232DE9C0
:100E1000F04100254FF0010E43431F4F1A1D1F4C98
:100E20003A441F448D4203D101461D4803F0E8FBBC
:100E30003B680EFA05F61E422AD0136B66690EFA5D
:100E400003F3334224D0D2F818C063611668FEB1B0
:100E5000E26833EA020203D1A26833EA020213D144
:100E6000A26833EA020203D1E26833EA02020DD13A
:100E7000DCF80820134214BF01210221094B30463F
:100E8000BDE8F0411B6818470221F7E70121F5E7AB
:100E900001350432C6E700BFC0070020000401404E
:100EA000FD710008D409002006210846FFF7AEBFF7
:100EB00005210846FFF7AABF01210420FFF7A6BFBE
:100EC00001210320FFF7A2BF01210220FFF79EBFEF
:100ED00001210846FFF79ABF01210020FFF796BFC6
:100EE000012910B518D11B4C838952B1A26803F0B7
:100EF0000F0399401143A160836843F001038360AD
:100F000010BDA26803F00F03994022EA0101A1601D
:100F1000836823F00103F2E70229F1D10D498389A7
:100F20005AB10122CC6803F00F0302FA03F3234302
:100F3000CB60836843F00203E1E70124CA6803F051
:100F40000F0304FA03F322EA0303CB60836823F060
:100F50000203D4E7000401400F22B0F90C3070B551
:100F600099B201F00F0606F00C0404F1804404F578
:100F7000803401F00301A56889008A4025EA020552
:100F80000122C3F303138B402B43A3600E4BB240EB
:100F90001968114319608468E50742BF99681143D5
:100FA0009960A10742BFD9680A43DA6090F900301E
:100FB000002B08DB0122590903F01F0302FA03F397
:100FC000024A42F8213070BD0004014000E100E017
:100FD0002DE9F04F92464A1C85B080460D4661D0FF
:100FE000314A324F916905F00F0941F001019161D9
:100FF0009269C5F3031002F001020392039A0C22D6
:1010000002FB09725468062C49D8DFE804F0043C5E
:101010003E4042444600264E0193FFF75FFE0C21FE
:1010200001FB09F157F801E07A184C21A8F80C509F
:1010300001254FF0000B61431E4F92F908207B58A9
:1010400005FA0EF51D43C8F8044088F80020C8F8DA
:1010500008B07D50132101FB04E4019B07EB8401E0
:101060004B60154BC861C3F800A0144BC1F8349015
:101070009B681032404643F82260FFF76DFF5846E8
:1010800005B0BDE8F08F0E4EC6E70E4EC4E70E4E1B
:10109000C2E70E4EC0E70E4EBEE70E4EBCE70E484E
:1010A00003F0AEFA0846EBE7001002402872000891
:1010B000D90E0008C0070020D409002000ED00E090
:1010C000D10E0008C90E0008C10E0008B90E0008B4
:1010D000B10E0008A90E0008D671000801210C22EB
:1010E000838970B503F00F035A4301FA03F3DB431E
:1010F0001A4CA518A4581A4A6E68956801FA04F4A7
:101100001D409560D5681D40D56015682B40136063
:101110004C237343134AD358A3431ED190F9003094
:10112000002B0CDB5A0903F01F03994002F1200346
:101130000D4A42F82310BFF34F8FBFF36F8F90F922
:101140000030002B09DB01215A0903F01F0301FACB
:1011500003F30549603241F8223070BD287200085F
:1011600000040140C007002000E100E083894C2119
:1011700003F00F020C2370B4012453430E4AD658D7
:1011800043680E4A594304FA06F5545824EA050404
:101190005450132101FB0363002102EB83046160BF
:1011A0009C1D0C3302EB840402EB830361605960E5
:1011B00070BCFFF793BF00BF28720008C007002073
:1011C00008B502F0AFF8002008BD0000104B10B5C4
:1011D0001B68104C63B102F0B5FF02F09EFF23685C
:1011E0001844002323604FF47A73B0FBF3F010BD72
:1011F00002F0FEF823682060C31A4FF47A70064AA2
:101200009BB211680B441360B3FBF0F010BD00BF3C
:10121000E0090020DC090020D809002000B589B0D1
:1012200003F0D6F8052101A802F0E5FC104E114D9F
:101230000424019A039B30461A6003F059FA019A7C
:10124000049B30461A6003F053FA013CF1D10424A8
:10125000019A039B28461A6003F04AFA019A049BFC
:1012600028461A6003F044FA013CF1D1E0E700BFE0
:10127000F0490200801A060010B5044603F0A8F8F1
:10128000204604F022FC21460246022000F046FAE5
:10129000BDE8104003F0B2B810B5A2B00B4602464C
:1012A000842101A804F058FC8328044605D90522AE
:1012B00005490DF1830003F008FF002C02DD01A8B1
:1012C000FFF7DAFF22B010BDE87200080FB407B5CF
:1012D00004A951F8040B0191FFF7DEFF03B05DF89C
:1012E00004EB04B070470000F0B52C4C00252646F6
:1012F0002B4F85B054F82520294638460135FFF795
:10130000E5FF0D2DF6D1A36C04F134010293636C5B
:1013100024480193236C244C00930EC9FFF7D6FF99
:1013200021682248FFF7D2FFE16AA26AA36AA06A95
:10133000256BE76B000C01950090C3F30723029720
:10134000D2B21B48FFF7C2FFA36A1D0603D5616B2B
:101350001848FFF7BBFFA36A180403D5A16B164812
:10136000FFF7B4FFF36C190712D51448FFF7AEFF6F
:10137000336DDA070FD51248FFF7A8FFF36C5B0750
:101380004CBF1048104805B0BDE8F040FFF79EBFC5
:101390000E48FFF79BFF0E48EEE700BF3C0B002016
:1013A000847300089273000800ED00E0E173000808
:1013B000EF7300083E7400084C7400085A7400086B
:1013C0006974000899740008A574000889740008FD
:1013D0007674000813B504461548FFF777FF302CE4
:1013E00017D0402C1AD0202C1DD11248FFF76EFFC9
:1013F000114C1248FFF76AFFFFF776FF1048FFF71E
:1014000065FF00230F4A0093D26B0F49204603F07B
:1014100017F90E48FFF75AFF0D4CEAE70D48FFF7A2
:1014200055FF0D4CE5E70D48FFF750FF0C4CE0E78A
:10143000F47200081D7300083E01FF804A73000823
:10144000557300083C0B0020747300082C730008CF
:101450003F01FF80357300084001FF8040730008A2
:101460003D01FF8008B501F017FF01F00DF901F013
:1014700005FF01F011FF0122014B1A6008BD00BFFA
:10148000E009002000207047036801221B69002149
:1014900018470022036811461B69184703681B6937
:1014A000184703689B69184703689B6A1847002917
:1014B0000CBF6FF01800002070470120704711200A
:1014C000704770476FF01C0070476FF01500704751
:1014D000012070470020704770470000F8B515469E
:1014E0000C46064E8F18BC4205D014F8011B30463E
:1014F00001F098F8F7E72846F8BD00BF900B0020F0
:1015000038B58DB215F0010405D0084800F09EFEF4
:10151000041C18BF0124EB0605D5044800F0ACFEFE
:1015200008B144F01004204638BD00BF900B0020E5
:1015300010B5044603F0A4FD204610BD10B50C46BE
:101540002AB1044801F058F82070012010BD10465F
:1015500010BD00BF900B002038B51D46074B044658
:101560000360074B1B6833B9064800F0DFFE2946CD
:10157000044800F0B5FE204638BD00BF24750008C1
:10158000440A0020900B0020002070470020704784
:1015900008B5012000F096F90C4A10B513681844FC
:1015A000EFF30881884205D30C22094B4FF0FF303E
:1015B0001A6010BD07490C6824B107490968214425
:1015C0008842F1D21060184610BD00BFF80100201B
:1015D000E80C0020FC090020000A002001207047D0
:1015E00001207047002104F06DB97047704708B5BD
:1015F000FFF7FBFF08BD08B5FFF7F8FF08BD0000C7
:1016000008B5037803F00302012A0BD02AB140F297
:101610008C520549054802F0BFFE43F002030370F7
:10162000012008BD002008BD6C750008BB750008CE
:1016300008B5037803F00302022A05D040F2945261
:101640000449054802F0A8FE23F0030343F0010318
:10165000037008BD6C750008E17500083F2870B57F
:1016600004462FDC184D55F820305A1C13D102289F
:1016700011DCFFF78BFF034658B92046FFF784FFC4
:10168000034630B9114E3378BFF35B8FDB0704D5C7
:101690000F4B45F82430184670BD3046FFF7B0FFB9
:1016A0000028F5D04FF41653032202210848FFF713
:1016B00053FF3046FFF7BCFF064A07490448FFF7CF
:1016C0008DFFE5E70023E6E7F8000020E4090020AD
:1016D000F8090020F0000020D914000838B50546AC
:1016E0000024FFF7BBFF0B4B43F8254030B903F054
:1016F000E7F8092303604FF0FF3038BD03685B69EA
:101700009847051E04DA03F0DBF86D420560F2E746
:10171000204638BDF8000020FFF7E0BF38B50C4682
:101720001546FFF79BFF38B903F0CAF80923036099
:101730004FF0FF34204638BD03682146DB682A4657
:101740009847041EF6DA03F0BBF864420460EFE742
:1017500008B5131E06DA03F0B3F8162303604FF042
:10176000FF3008BD04D0FFF7D9FF40EAE07008BDA4
:10177000184608BD38B50C461546FFF76FFF38B957
:1017800003F09EF8092303604FF0FF34204638BD74
:10179000036821469B682A469847041EF6DA03F040
:1017A0008FF864420460EFE7002A08B503DBBDE868
:1017B0000840FFF7DFBF03F083F8162303604FF004
:1017C000FF3008BD10B5FFF749FF044628B903F004
:1017D00077F809230360204610BD0368DB6998474A
:1017E000041EF8DA03F06CF8644204600024F2E7A7
:1017F0001FB504220C4640230DEB020101900DF1B0
:1018000009008DF8083003F060FC214602A803F0BF
:101810009DFA044630B10198FFF7D4FF10B120467D
:10182000FFF7E0FE204604B010BDFFF7CBBF38B590
:101830000C461546FFF712FF38B903F041F80923AB
:1018400003604FF0FF34204638BD036821461B6912
:101850002A469847041EF6DA03F032F86442046020
:10186000EFE7FFF7E4BF10B5FFF7F8FE30B903F07C
:1018700027F8092303604FF0FF3010BD03689B6910
:101880009847041E04DA03F01BF864420460F2E790
:10189000002010BD05460A4C08B52368986803F07F
:1018A00021F92368D86803F01DF90120FFF7DBFF59
:1018B0000220FFF7D8FF0DB1FFF7B0FCFEE700BF35
:1018C0000402002008B5FFF7E5FF38B50D46FFF725
:1018D000C5FE044630B902F0F3FF092303604FF060
:1018E000FF3038BD0368DB699847002814BF4FF408
:1018F00000534FF400436B60236820469B6A98476F
:101900002861002038BDFFF7E0BF03F0B9BB00003D
:1019100008B5034653F8082B02B9036002689A42DF
:1019200004D068220249034802F036FD184608BD7B
:10193000B17400080875000810B504460948FFF79F
:10194000E7FF00231946084A52F82300A04208BFC7
:1019500042F823100133402BF6D10248FFF7D8FF9D
:1019600010BD00BFE8090020F800002010B50324D6
:101970000E48FFF7CDFF0E4B53F824206AB1013417
:10198000402CF9D102F09CFF182303600748FFF7B1
:10199000BFFF4FF0FF34204610BD4FF0FF32034829
:1019A00043F82420FFF7B4FFF5E700BFE809002063
:1019B000F800002010B50446FFF7D8FF0028A4BFA8
:1019C000014B43F8204010BDF800002070B50646DA
:1019D0000C46FFF7EFFF054690B12146FFF708FFE1
:1019E000044630B9074B53F82520964203D143F8FB
:1019F0002500204670BD02F063FF09230360F8E76D
:101A00000446F6E7F80000200EB42DE9F04185B059
:101A10000546FFF7ABFF041E13DB0023294602A88F
:101A2000019302F0A5FB02A802F0F2FB1B4D064653
:101A300068B902F045FF1323036045F824604FF0B6
:101A4000FF34204605B0BDE8F04103B0704702A85E
:101A500002F0CCFB074602A837B102F0D0FB0190A0
:101A6000019B45F82430ECE702F0B7FB064600285E
:101A7000DFD0036802A8D3F8088002F0A3FB0B9B19
:101A8000024601A93046C04706460028E8D002F0C9
:101A900017FF7642066045F82470D0E7F800002072
:101AA00073B50E461849054604F005F8044620B9FA
:101AB000FFF7D4FD204602B070BD1449284603F05C
:101AC000FAFF20B90120FFF7C9FD0124F2E7104910
:101AD000284603F0F0FF20B90220FFF7BFFD0224E3
:101AE000E8E72B78402B07D10422691C0DEB02009C
:101AF00003F0EBFA019CDDE726F400412846FFF7EE
:101B000083FF0446D6E700BF287600082F7600083A
:101B10002076000870477047074B10B59A68074950
:101B20000748043A52F8044F41F8044F8142F9D172
:101B30004FF000529A6010BD00ED00E0FCFFFF1F67
:101B4000E800002008B5FFF7E7FFFFF78BFCFFF781
:101B5000E2FF08BD08B5FFF7DDFFBDE80840FEF76E
:101B6000E3BD30B50D0E91FAA1F4B4FA84F491FA04
:101B7000A1F10F23B1FA81F1A40003FA04F443594F
:101B8000890023EA040302FA01F11943415130BDEF
:101B900030B50D0E91FAA1F4B4FA84F491FAA1F1E2
:101BA0000423B1FA81F1A40003FA04F44359890033
:101BB00023EA040302FA01F11943415130BD10B583
:101BC00091FAA1F2B2FA82F291FAA1F394000F22F3
:101BD000B3FA83F3090E4058A24010409B00D8404E
:101BE00010BD70B5164605460C46FFF7E8FF012EFE
:101BF0000AD0022E1CD0082829D121462846BDE84B
:101C000070400422FFF7ADBF042804D1082221460A
:101C10002846FFF7A6FFEB68240A94FAA4F223EA09
:101C20000404B2FA82F2012393401C43EC6070BDBD
:101C3000042804D1082221462846FFF792FFEB68CA
:101C4000240A23EA040394FAA4F4EB6070BD70BD87
:101C5000B0F1FF3F2DE9F3478246894604D13E2289
:101C60007549764802F098FB1FFA80F8744B08F02B
:101C70000F02C0F3031001F0070553F82240FFF7ED
:101C80002DF8012D06466F4F40F0C780210E94FAC3
:101C9000A4F3B3FA83F394FAA4F04FF0030EB0FA6E
:101CA00080F072589B000EFA03F322EA03032A46DF
:101CB00080000EFA00FE43EA0E03735021463046C0
:101CC000013DFFF74EFF012D07D819F0080218BF9C
:101CD000042221463046FFF75BFFC9F3011221467B
:101CE0003046FFF77EFFBB6943F00103BB61BB6970
:101CF00003F001030193019BA8F10D03012B79D897
:101D0000514A536823F0E06343F080635360A8F1C5
:101D10001308B8F1010F77D86FE0BB69C9F303224C
:101D200043F00103BB61BB6903F001030093009B17
:101D300082B1531E092B0DD8DFE803F0050E151CE8
:101D4000232C353E454D404A536843F0E06343F051
:101D5000010353600922B1E73B4A536843F0E06353
:101D600043F00203F5E7384A536843F0E06343F079
:101D70000403EEE7344A536843F0E06343F008039A
:101D8000E7E7314A536823F0300343F0E06343F060
:101D90001003DEE72C4A536823F0C00343F0E063EE
:101DA00043F04003D5E7284A536823F4406343F0E7
:101DB000E06343F40063CCE7234A536843F0E063F5
:101DC00043F44073C5E720494B6843F0E06343F4B4
:101DD00040634B6072E71C4A536823F4C04343F0EE
:101DE000E06343F48043B4E767221349174839E7B7
:101DF000002263E7BAF10F0F89D1134A536823F029
:101E0000E06343F00073536002B0BDE8F087012245
:101E100021463046FFF7A5FE57E7032DE4D801A37E
:101E200053F825F0351E00080F1E00081B1D000882
:101E3000F11D0008082241E778760008C371000808
:101E4000387600080010024000000140637B000863
:101E5000431C70B50E4604D188221A491A4802F074
:101E60009BFA1A4B00F00F02C0F3031053F8224004
:101E7000FEF734FF21460546FFF7A1FE20F00800DB
:101E8000012807D1F31E022B0DD804222146284633
:101E9000FFF77EFE032E0BD1012221462846BDE826
:101EA0007040FFF79EBE002221462846FFF770FED5
:101EB000012EF1D0052E01D0022E01D10222ECE735
:101EC0000022EAE778760008C37100083876000837
:101ED00030B50C460268284B89B005461A600021CF
:101EE000204604F0ABFD50BB4FF07E51204604F07D
:101EF000C3FD08B14FF07E54E86804F0A9FB214609
:101F000004F0FEFB04F07AFA1C4B002204F018F9EE
:101F100004F0C8FA60230193AB682861B0FBF3F0CA
:101F20000023039305930693049307932B7D02905C
:101F3000013B032B1BD8DFE803F012040E10002432
:101F4000DAE70424224601A90B4800F087FF40B1DC
:101F50000B4802F055FB0824F4E70C24F2E70024B8
:101F6000F0E76B7D214604481BB101F033F809B05E
:101F700030BD01F00BF8FAE7040A00200000E03F52
:101F80006277000838B5C46894B1006904F060FB5A
:101F90000546204604F05CFB0146284604F064FC3C
:101FA0004FF07E51044604F067FD18B9204638BD55
:101FB0000024FBE74FF07E54F8E7000000232DE9F2
:101FC000F04FD0F80080494C87B0009305460E468C
:101FD000C4F80080FFF7D6FF41F21113D8F8202093
:101FE00083461A420BD140F24443D8F820201A42CB
:101FF00002BFD8F8003023F00103C8F8003001A870
:10200000694600F0F1FD00222868394BD1B253F83F
:10201000317001328742F9D110B9364802F0F0FA36
:1020200003EBC1031B79002B3ED100F0BDFD0090F6
:10203000049801230099AB602F4B002839D1B1FBE4
:10204000F3F3013B63602C4B4FEA4108B1FBF3FE15
:10205000002106F1FF3CB8FBF3F88A4663464FF6D1
:10206000FE796268C4F80CC0B3F5803F25D2B2F5A2
:10207000803F22D2BAF1000F00D0626001B1E3606C
:1020800000231A482361A36000F0A2FE30BBEE607B
:1020900059462846FFF71CFF2268136843F00103E6
:1020A000136007B0BDE8F08F00F08EFD009005983A
:1020B000BFE74A00B2FBF3F3C3E7AB685B00AB607A
:1020C00070B90EFB03F2BCFBF3F34B4502F1FF3298
:1020D00009D8B2F5803F06D36260E36007489DE708
:1020E00008FB03F2EFE701218A46BDE7040A00205E
:1020F0007C7700084D77000840420F0062770008A7
:1021000030B50D46044685B03249284601F0BEFD83
:102110002060013004D12E222F49304802F03CF9D2
:102120002C49284601F0D4FD431C03D132222A4910
:102130002B48F3E7C0F3043323752A4A2368C0F31E
:102140004040934260751AD1274B9A6942F400626D
:102150009A619B6903F400630093009B28461D4924
:1021600001F04CFD0023E36023610123A580A360FF
:1021700044F620612046FFF721FF05B030BDB3F1E2
:10218000804F0BD103F50433DA6942F00102DA61C2
:10219000DB6903F001030193019BDFE7134A9342DC
:1021A0000AD1114BDA6942F00202DA61DB6903F00D
:1021B00002030293029BD1E70D4A9342CED10A4B10
:1021C000DA6942F00402DA61DB6903F00403039385
:1021D000039BC3E7A06F0008C87600081C770008BF
:1021E00034770008002C0140001002400004004039
:1021F0000008004038B50446084604F02DFA0546AC
:10220000E06804F025FA0146284604F02DFB01465B
:102210002046BDE83840FFF75BBE4FF47A73594360
:10222000FFF7E8BF0FB407B5064B05AA1B680649C0
:10223000D868019203F09AF803B05DF804EB04B09B
:10224000704700BF04020020A47700084368094AD1
:102250009B01D35882B01A68120706D5002201925A
:102260001A6801925A680192019A1868C0F34010E6
:1022700002B07047DC0B00204368034A9B01D3582F
:102280001868C0F3C0107047DC0B0020426810B41F
:102290001249046892015450531882685A60C26807
:1022A0009A600269DA6042691A61026A9A610022E0
:1022B000DA84DA619A84DA859A85B0F91A200132D3
:1022C00005D108225A61184610BC00F034BFB0F99D
:1022D000182001320CBF04220C22F3E7DC0B002093
:1022E00010B581600C46FFF7D1FF28B12146BDE84B
:1022F00010400248FFF796BF10BD00BFA47700084A
:10230000094B98420BD0A3F57443984209D003F5CA
:10231000806398420CBF02204FF0FF3070470020CE
:1023200070470120704700BF00380140F0B50E46ED
:1023300085B0044643493046154601F0A7FC4249A2
:102340000746284601F0A2FC0146384601F07AFC17
:102350002060013004D13D223C493D4802F01CF888
:10236000022E0AD0032D08D03649022001F08EFC3F
:1023700087421BD1374802F043F901272068364BCA
:10238000984215D103F558439A6942F480429A6104
:102390009B6903F480430193019BFFF7B1FF002881
:1023A000606023DAA42229492C48D7E70027E5E713
:1023B0002B4B98420BD103F5E633DA6942F4003235
:1023C000DA61DB6903F400330293029BE5E7254BF6
:1023D0009842E2D103F5E433DA6942F48022DA610B
:1023E000DB6903F480230393039BD6E7154930464A
:1023F00001F004FC1449284601F000FC721C03D0D3
:1024000001213046FFF724FD6B1C03D00121284633
:10241000FFF71EFD4FF41653A36000232683E360ED
:1024200023616361236265832046FFF72FFF3FB17D
:1024300001220D4B21461A600C484C2202F045FE49
:1024400005B0F0BD08710008C0700008CE77000824
:10245000227800083E7800080038014073780008B0
:102460000044004000480040440A0020900B002037
:10247000002808DB0123420900F01F0003FA00F0E6
:10248000014B43F82200704700E100E000280DDB1B
:102490000122430900F01F0002FA00F0044A203331
:1024A00042F82300BFF34F8FBFF36F8F704700BF19
:1024B00000E100E0F7B5FFF723FF071E26DB144E0F
:1024C00056F8270010B3134CBD0163591A68120661
:1024D00006D5DB68190603D50F4B01211B68984709
:1024E00063591A68920608D5DB68980605D50A4B29
:1024F00000211B6856F82700984763591A6811078E
:1025000004D55A69D20744BF5B68019303B0F0BD9C
:102510004C0A0020DC0B0020480A00200148FFF78D
:10252000C9BF00BF004800400148FFF7C3BF00BF5C
:10253000004400400148FFF7BDBF00BF0038014024
:10254000034B19604168034B43F82120704700BFDB
:10255000480A00204C0A002030B409C81E4CA04292
:1025600013D125201D4C1E4D9B01FAB1EA58D368AA
:10257000C9B943F02003D3601A4B00F110029B68E5
:1025800043F8224030BCFFF773BF174CA04202D182
:10259000164C2620E7E7164CA04213BF0024154C2A
:1025A00027202046DFE743F08003E4E7EB58DA68B2
:1025B00049B922F02002DA60DB6813F0800F09D1FC
:1025C00030BCFFF763BF22F08002DA60DB6813F0F3
:1025D000200FF4E730BC7047003801403525000873
:1025E000DC0B002000ED00E000440040292500083D
:1025F000004800401D25000838B5054644682846B7
:10260000FFF724FE0028FAD0054AA301D358E96851
:10261000586809B9C0B238BDC0F3080038BD00BF62
:10262000DC0B002070B506460C4645683046FFF7C7
:1026300023FE0028FAD0054AF168AB01D35811B93E
:10264000E4B25C6070BDC4F30804FAE7DC0B002060
:1026500008488546002103E0074B5B58435004318E
:102660000648074B42189A42F6D300F0A7FDFDF743
:1026700083FDFEE70050002030800008F0000020BD
:1026800078020020FEE77047074A08B51368032068
:1026900043F01003136000F009F80F20FEF790FDDF
:1026A000FFF7F1FF002008BD00200240074A0002AA
:1026B000D36800F4E06023F4E0631B041B0C43F0D8
:1026C000BF6343F400330343D360704700ED00E081
:1026D00003682DE9F341DB07054610D42B689F07FB
:1026E0005ED42B68190700F195802B685A0700F11A
:1026F000BF80EA69002A40F02D81002014E0904C50
:10270000636803F00C03042B07D0636803F00C0329
:10271000082B0CD16368DE0309D523689C03DDD543
:102720006B68002BDAD1012002B0BDE8F0816B6844
:10273000B3F5803F10D1236843F480332360FEF764
:1027400045FD064623689803C8D4FEF73FFD801B6D
:102750006428F7D90320E7E79BB9236823F4803383
:102760002360236823F480232360FEF72FFD0646B1
:1027700023689903B2D5FEF729FD801B6428F7D999
:10278000E8E7B3F5A02F236803D143F48023236047
:10279000D1E723F480332360236823F48023CDE73B
:1027A000674C636813F00C0F07D0636803F00C03E9
:1027B000082B10D16368DA030DD423689B0702D578
:1027C0002B69012BAFD123686A6923F0F80343EA30
:1027D000C203236085E72A695A4B6AB101221A6055
:1027E000FEF7F4FC064623689F07ECD4FEF7EEFCE8
:1027F000801B0228F7D9ADE71A60FEF7E7FC064612
:10280000236898077FF56DAFFEF7E0FC801B022878
:10281000F6D99FE7AA694A4C4B4BDAB101221A60FC
:10282000FEF7D4FC0646636A9B070DD54FF4FA52B7
:10283000464B1B68B3FBF2F3019300BF019B5A1E8A
:102840000192002BF9D150E7FEF7C0FC801B022853
:10285000E9D97FE71A60FEF7B9FC0646636A9F076D
:102860007FF543AFFEF7B2FC801B0228F6D971E773
:10287000334CE369D80024D40127E36943F0805343
:10288000E361E36903F080530093009B304E3368AB
:10289000D90518D5EB68012B26D1236A43F0010333
:1028A0002362FEF793FC41F288368046236A9B0739
:1028B0003FD5002F3FF41DAFE36923F08053E36160
:1028C00017E70027E2E7336843F480733360FEF7CD
:1028D0007DFC80463368DA05DCD4FEF777FCA0EB9C
:1028E00008006428F6D935E7ABB9236A41F2883885
:1028F00023F001032362236A23F004032362FEF71B
:1029000065FC0646236A9807D3D5FEF75FFC801B5B
:102910004045F7D91EE7052B236A03D143F0040392
:102920002362BAE723F001032362236A23F004033E
:10293000B6E7FEF74BFCA0EB0800B042B6D909E7BA
:10294000001002400000424280044242FC0100208C
:1029500000700040224C636803F00C03082B3FF426
:10296000E2AE00231F4E022A33602BD1FEF72EFC6D
:102970000746236899011FD42B6AB3F5803F05D120
:102980006268A96822F400320A436260696A626878
:102990000B4322F474121343636001233360FEF788
:1029A00015FC054623689A013FF5A7AEFEF70EFC1D
:1029B000401B0228F6D9CDE6FEF708FCC01B022812
:1029C000D7D9C7E6FEF702FC054623689B017FF5D1
:1029D00094AEFEF7FBFB401B0228F6D9BAE600BF17
:1029E000001002406000424230B5194B87B002AC83
:1029F00003F11005224618685968083303C2AB4238
:102A00001446F7D101238DF80430022311498DF8C3
:102A100005304B6803F00C02082A17D1C3F3834238
:102A200006A80244DB0312F8102C0CD54B680A48A8
:102A3000C3F34043504306AA134413F8143CB0FBBD
:102A4000F3F007B030BD05485043FAE70248F8E715
:102A5000857800080010024000127A0000093D004D
:102A60004D4A2DE9F0411368054603F007038B42F8
:102A70000E4628D32A68910732D4D20738D4464A62
:102A8000136803F007039E4273D32A68434C12F085
:102A9000040F79D1130706D563682A6923F46053BC
:102AA00043EAC2036360FFF79FFF63683C4AC3F3D6
:102AB0000313D35CD8403B4B18600F20FEF780FB1C
:102AC0000020BDE8F081136823F007030B43136077
:102AD000136803F007039942CCD00120BDE8F081D0
:102AE0002E49A8684B6823F0F00303434B60C4E70A
:102AF0006A682A4C012A23681CD113F4003FECD0E9
:102B0000636841F2883823F0030313436360FEF7E0
:102B10005DFB6B680746012B14D1636803F00C035F
:102B2000042BACD0FEF752FBC01B4045F5D9032067
:102B3000BDE8F081022A02D113F0007FDFE713F035
:102B4000020FDCE7022B0FD1636803F00C03082BA4
:102B500095D0FEF73BFBC01B4045F5D9E7E7FEF7F4
:102B600035FBC01B4045E2D8636813F00C0FF6D16B
:102B700085E7136823F0070333431360136803F0FA
:102B800007039E42A9D180E76368E96823F4E06304
:102B90000B4363607EE700BF00200240001002404C
:102BA000A9780008FC010020044B054A5B68C3F3C8
:102BB0000223D35C034A1068D840704700100240DB
:102BC000B9780008FC010020044B054A5B68C3F398
:102BD000C223D35C034A1068D840704700100240FB
:102BE000B9780008FC0100200F2303600B4B5A68E2
:102BF00002F0030242605A6802F0F00282605A68F2
:102C000002F4E062C2605B68DB0803F4E063036126
:102C1000034B1B6803F007030B6070470010024072
:102C200000200240036A70B523F001030362036AC7
:102C3000446882690D6822F073022A438D6823F08C
:102C400002032B430A4DA8420BD1CD6823F00803A1
:102C50002B438E694D6924F44074354323F00403FB
:102C60002C43446082614A684263036270BD00BFC6
:102C7000002C0140036A70B523F480730362036A79
:102C80004468C2690D6822F073022A438D6823F4F8
:102C9000007343EA05230B4DA8420DD1CD6823F400
:102CA000006343EA05238E694D6924F4405435439B
:102CB00023F4806344EA05144460C2614A68C26335
:102CC000036270BD002C0140036A30B523F48053C9
:102CD0000362036A4468C2690D6822F4E64242EA6C
:102CE00005228D6823F4005343EA0533064DA842BC
:102CF00002BF4D6924F4804444EA85144460C261F3
:102D00004A680264036230BD002C01407047022310
:102D1000026880F83D30136843F00103136001231B
:102D200080F83D3000207047704700001A4A036861
:102D300090420AD0B0F1804F07D0A2F59432904271
:102D400003D002F58062904215D14A6823F07003E7
:102D50001343114A90420AD0B0F1804F07D0A2F538
:102D60009432904203D002F58062904203D1CA6847
:102D700023F4407313434A6923F080031343036031
:102D80008B68C3620B688362034B984204BF0B6974
:102D90000363012343617047002C014010B50446D2
:102DA000A0B190F83D3003F0FF021BB980F83C2041
:102DB000FFF7ACFF0223206884F83D30211DFFF7A8
:102DC000B5FF0123002084F83D3010BD012010BD67
:102DD00010B50446A0B190F83D3003F0FF021BB9D6
:102DE00080F83C20FFF7A0FF0223206884F83D30E4
:102DF000211DFFF79BFF0123002084F83D3010BD0B
:102E0000012010BD036A70B523F010030362036A4A
:102E1000446882690D6822F4E64242EA05228D6820
:102E200023F0200343EA05130B4DA8420DD1CD68D2
:102E300023F0800343EA05138E694D6924F440644E
:102E4000354323F0400344EA8504446082614A68C4
:102E50008263036270BD00BF002C014038B590F85A
:102E60003C300446012B4FF0020025D0012384F8AA
:102E70003D0084F83C300C2A18D8DFE802F0071730
:102E800017171E1717172F17171740002068FFF77F
:102E9000C9FE236809699A6942F008029A619A6931
:102EA00022F004029A619A690A439A610123002080
:102EB00084F83D3084F83C0038BD2068FFF7A2FF5D
:102EC000236809699A6942F400629A619A6922F456
:102ED00080629A619A6942EA0122E6E72068FFF778
:102EE000C9FE23680969DA6942F00802DA61DA6921
:102EF00022F00402DA61DA690A43DA61D6E720686F
:102F0000FFF7E2FE23680969DA6942F40062DA61D8
:102F1000DA6922F48062DA61DA6942EA0122ECE7D6
:102F200010B50124036A8C4023EA04030362036A98
:102F30008A401A43026210BD10B5044600220068A0
:102F4000FFF7EEFF2368104A93420DD141F21112B0
:102F5000196A114208D140F24442196A114202BF73
:102F60005A6C22F400425A6441F21112196A114259
:102F700008D140F24442196A114202BF1A6822F095
:102F800001021A60002010BD002C014010B504465B
:102F900001220068FFF7C4FF2368064A002093421D
:102FA00002BF5A6C42F400425A641A6842F00102AD
:102FB0001A6010BD002C0140FFF7E8BF10B50424D3
:102FC000036A8C4023EA04030362036A8A401A43BB
:102FD000026210BD10B5044604220068FFF7EEFF40
:102FE000236800205A6C42F400425A641A6842F086
:102FF00001021A6010BD00002DE9F0470568C268A3
:103000002B69016923F4405313432B618368EA68F9
:103010000B43416922F4B05222F00C020B431343DC
:10302000EB606B69826923F4407313436B61404B1F
:1030300081469D424FF0190446D1FFF7C5FD04FBC0
:1030400000F3D9F804604FF06408B600B3FBF6F360
:10305000B3FBF8F31E01FFF7B7FD6043D9F8043066
:103060009B00B0FBF3F7FFF7AFFD6043D9F80430E6
:103070009B00B0FBF3F3B3FBF8F308FB13731B01E6
:103080003233B3FBF8F303F0F007FFF79DFD604325
:10309000D9F804209200B0FBF2FAFFF795FD6043E7
:1030A000D9F804309B00B0FBF3F3B3FBF8F308FB53
:1030B00013A31B013233B3FBF8F303F00F033B43BD
:1030C0003344AB60BDE8F087FFF76EFD04FB00F30F
:1030D000D9F804604FF06408B600B3FBF6F3B3FB15
:1030E000F8F31E01FFF760FD6043D9F804309B0040
:1030F000B0FBF3F7FFF758FD6043D9F804309B00AD
:10310000B0FBF3F3B3FBF8F308FB13731B0132338B
:10311000B3FBF8F303F0F007FFF746FD6043D9F87F
:1031200004209200B0FBF2FAFFF73EFDB7E700BFC4
:1031300000380140704710B5044640B390F839306C
:1031400003F0FF021BB980F83820FFF7F3FF2423B8
:10315000226884F83930D368204623F40053D360C2
:10316000FFF74AFF236800201A6922F490421A618F
:103170005A6922F02A025A61DA6842F40052DA608F
:103180002023E06384F8393084F83A3010BD012000
:1031900010BD7FB50F23022101934FF480620023FD
:1031A00001A80291039304920593FFF759FCB0FA2A
:1031B00080F0400907B05DF804FB00000F4B1A686F
:1031C00042F001021A6059680D4A0A405A601A68B2
:1031D00022F0847222F480321A601A6822F480226B
:1031E0001A605A6822F4FE025A604FF41F029A6075
:1031F0004FF00062034B9A60704700BF001002401E
:103200000000FFF800ED00E0012310B58AB0009344
:10321000A0B94FF480330193022307934FF4803316
:10322000002408934FF4E013684602940993FFF7D3
:103230004FFA30B9FFF7ADFF0AB010BD4FF4A0232D
:10324000E9E72046F8E7032310B58AB0009301238D
:103250000493102305930223002407934FF4601373
:103260006846019408940993FFF732FA18B9FFF7FA
:1032700090FF0AB010BD2046FBE7000008B5012012
:10328000FFF7C2FF28B9FFF7DEFF10B9014801F0D0
:10329000B7F908BD95780008114A124B516801F042
:1032A0000C01042901D008290AD00F49196052687D
:1032B0000E49C2F30312895C1A68CA401A6070474B
:1032C00051685068C1F38341C00301F1020102D487
:1032D00007484143EAE750688003F9D40248F8E719
:1032E00000100240FC01002000127A00A9780008BA
:1032F00000093D00074B084A13601A69910707D57A
:10330000DA68920704D56FF002021A6100F01EBF5E
:10331000704700BF00080040A00C00200048704724
:10332000C4780008224B37B5DA69224C42F0040217
:10333000DA61DA69002502F004020192019A1A6941
:1033400042F004021A611A6922F004021A61FFF7BE
:10335000A3FF194B194A23604FF6FF73E360184B24
:1033600020461B682561B3FBF2F3013B6360A56057
:103370006561A561FFF712FD29462046FFF71CFE97
:10338000104B114A9B682046C3F8B8204FF080428A
:103390000E4B1A60FFF7BBFC2268D36823F00203D0
:1033A000D3600B4B1D600B4B1D6003B030BD00BFE5
:1033B00000100240A00C00200008004040420F0016
:1033C000FC01002000ED00E0F532000800E100E023
:1033D000DC090020D8090020044800210268D368D5
:1033E00023F00203D360FFF7E7BD00BFA00C00206D
:1033F000014B586A704700BF000800406FF002029E
:10340000044B1B6858631A61DA6842F00202DA6002
:10341000704700BFA00C00206FF00202054B1B6834
:103420001A615A6942F002025A61DA6842F00202F5
:10343000DA607047A00C0020034B1A68D36823F0B1
:103440000203D360704700BFA00C00206FF002029F
:10345000014B1B681A617047A00C002008B50021C1
:103460000348FFF769FDBDE80840FFF7E5BF00BF6F
:10347000A00C00200346024A2030FDF7A9BD00BF82
:10348000F9350008F8B50546044610260F46124BDC
:103490001C2245F8043B0021284601F021FE32465B
:1034A000002104F1200001F01BFE3246002104F14E
:1034B000300001F015FE3246002104F1400001F019
:1034C0000FFE39462046FFF7D5FF2846394600F063
:1034D0007FFB2046F8BD00BF2C79000810B50446DC
:1034E000074B40F8203BFDF741FE04F14000FDF79B
:1034F000DFF804F13000FDF7DBF8204610BD00BF17
:103500002C79000810B50446FFF7E8FF2046FEF7C7
:10351000FCF9204610BD884238B504460D460AD055
:10352000FDF7C6F83CB1EB681BB15B682946204645
:103530009847EB68E360204638BDF0B50F46044677
:1035400085B000F045FFFD6804F13006203465B118
:1035500039463046FFF7DFFF012201212046FDF703
:10356000BFFC00F04BFF05B0F0BD102229466846B5
:1035700001F0B6FD69463046FFF7CDFF6846FDF71E
:1035800097F82A46E9E7F0B50F46044685B000F003
:103590001FFFFD6804F14006203465B1394630460E
:1035A000FFF7B9FF012202212046FDF799FC00F048
:1035B00025FF05B0F0BD10222946684601F090FDB8
:1035C00069463046FFF7A7FF6846FDF771F82A46BF
:1035D000E9E70000C36810B52BB940F23A2204496C
:1035E000044800F0D9FE1B68BDE81040184700BF32
:1035F000CC7800081F790008012908B502D00229FB
:1036000006D008BDC36B13B13030FFF7E3FF08BD30
:10361000C36C002BFBD04030F7E77047A0F1B0003F
:10362000FFF7FBBFA0F1B000FFF7F7BF00F076B8DF
:10363000A0F1B000FFF7FABF00F073B8A0F1B0003E
:10364000FFF7FABF10B5044600F07AF8002104F144
:10365000B00000F03DFE064B204603F10802226058
:1036600003F128028833C4F8B020C4F8B43010BD88
:10367000347900087047704710B4446800F10801BD
:103680000EC954B103F0010002B930B15B1008B1AA
:10369000E0588258E01810BC104710BC704700007A
:1036A00000EB01138C33DA6810B57AB100EB01102E
:1036B000D0F898202AB940F23A220549054800F08E
:1036C0006BFE12681846BDE81040104710BD00BFE1
:1036D000CC7800081F79000838B5054655F8403BFE
:1036E00004461B6898472846FEF7B0FD0546236848
:1036F00020465B689847284638BD38B5054655F8DA
:10370000403B04461B6898472846FEF7B5FD054632
:10371000236820465B689847284638BD4030FEF74E
:103720006BBF10B50C464030FEF77CFF204610BD45
:10373000C36810B504460BB19B689847204610BD7E
:103740002DE9F04F002504469B46894692462C4BB6
:1037500085B003602B4BA06029464360C5600561BE
:1037600045618561057745771022203001F0B8FC6E
:1037700004F140062946102204F1300001F0B0FCAB
:1037800004F18C0829464C22304601F0A9FC04F1D2
:103790009C0729461022404601F0A2FC294610222F
:1037A000384601F09DFC10222946C4F8ACB06846AA
:1037B00001F096FC69464046FFF7ADFE6846FCF70F
:1037C00077FF10222946684601F08AFC6946384690
:1037D000FFF7A1FE6846FCF76BFF524649463046AC
:1037E000FEF7A4FDD4F8AC103046FEF779FD304664
:1037F00022460549FEF7A4FE204605B0BDE8F08F3D
:10380000CC79000879360008A13600082DE9FF417F
:10381000064688461746054656F8403B3C011B685D
:10382000984700F0D5FDD8F80C308C342C44ABB15F
:10383000E3680BB900F01CFF41462046FFF76BFE22
:10384000012239463046FEF787FE00F0D7FD2B688F
:1038500028465B68984704B0BDE8F081E3680BB187
:1038600000F028FF10220021684601F039FC69466B
:103870002046FFF750FE6846FCF71AFF0022E0E7FB
:103880007FB504461A4B102203600021684601F000
:1038900027FC002269462046FFF7B8FF6846FCF780
:1038A00007FF10220021684601F01AFC0122694638
:1038B0002046FFF7ABFF6846FCF7FAFE14F18C06D2
:1038C00008D004F1AC05B54204D0103D2846FCF701
:1038D000EFFEF8E704F13000FFF72AFF04F12000C3
:1038E000FFF726FFA06900F03BFC204604B070BD46
:1038F000CC79000810B50446FFF7C2FF2046FEF75A
:1039000004F8204610BD70B5D0E90823D0E902457F
:10391000064612196B4100F01BF9736B2BB106F1CF
:1039200028001B68BDE87040184770BDD0B504463C
:1039300016461F4600F04CFD204600F013F9C4E97E
:103940000867A06900F0E9FB321847EB0103204645
:1039500000F0FEF8BDE8D04000F050BDF8B50446D8
:103960001F460D46164600F033FD636B13B994F8FD
:1039700038306BB9294604F12800FFF7CCFD3246F8
:103980003B462046FFF7D2FFBDE8F84000F036BDC9
:1039900000F06EFEEEE71FB5044600F019FD20466C
:1039A00000F0E0F8636B13B194F8383083B910225B
:1039B0000021684601F094FB694604F12800FFF7F6
:1039C000AAFD6846FCF774FE00F018FD04B010BDB7
:1039D00000F070FEEBE700001FB5436B044600F1FA
:1039E000280113B15B6868469847636B20460393D0
:1039F000FFF7D1FF039B2BB940F23A220549064855
:103A000000F0CAFC1B68684698476846FCF750FE01
:103A100004B010BDCC7800081F79000810B504462A
:103A200000F0D6FC23681BB1237F0BB100F042FEEF
:103A30000023236000F0E2FC204610BD10B50446D0
:103A400000F0C6FC236853B9237F0BB100F010FED1
:103A5000A06900F062FB0123C4E902012360BDE814
:103A6000104000F0CBBC38B5044600F0B1FC236830
:103A700073B1A06900F051FB04F10805D5E90045D8
:103A8000041B61EB050500F0B9FC2046294638BD52
:103A900000240025F7E770B5064600F099FCD6E94A
:103AA00004453046FFF7DFFF24184D4100F0A6FC27
:103AB0002046294670BD08B5FFF7EDFF08BD08B5E3
:103AC000FFF7E9FF4FF47A72002302F0DFFF08BD31
:103AD00010B5044600F07CFCA06900F01EFB00223B
:103AE0000023C4E90201C4E90423BDE8104000F04A
:103AF00085BC002310B5002203600023C0E9022327
:103B0000C0E90423044600F01DFB0123A0612377D4
:103B10002046FFF7DDFF204610BD03689B6818476D
:103B2000094B10B5002203600023C0E902230023E3
:103B300003614361044600F005FB0449A06100F005
:103B400069FA204610BD00BF0C7A00081B3B000834
:103B500007B5009000F10801806900F09AFA03B0FF
:103B60005DF804FB00F10801806900F0BBBA0000B9
:103B700010B50446024B0360FFF7F4FF204610BD6A
:103B80000C7A000870B50E4604461546FDF710F98C
:103B9000013609D020460021FDF730F9294620469C
:103BA000BDE87040FDF726B970BD38B504460D4636
:103BB00003685AB18268204613600121FDF71EF99F
:103BC00029462046BDE83840FDF714B9C268F2E73F
:103BD0000022FFF7D7BF70B50E4604461546FDF725
:103BE000E7F8013606D02A462046BDE8704000219D
:103BF000FFF7DBBF70BD0022FFF7EDBF13B5044632
:103C000001300FD102B010BD9C420AD12046896814
:103C1000FEF71EF80021204602B0BDE81040FEF776
:103C200017B90C31B1F900305A1CEDD100232246EE
:103C300000930249024800F003FD00BF677A0008C4
:103C400030010180884207B502460AD0431C08D0E3
:103C5000013105D0002305490093054800F0F0FC30
:103C60000146084603B05DF804FB00BF367A000841
:103C700030010180B1F900305A1C01D1184670475B
:103C8000834201D1486870470C31F3E7431C07B504
:103C90000AD0FFF7EFFF431C06D100230246009332
:103CA0000349044800F0CCFC03B05DF804FB00BFFE
:103CB000477A000830010180B1F900305A1C01D167
:103CC00018467047834201D1886870470C31F3E78A
:103CD000431C07B50AD0FFF7EFFF431C06D10023B2
:103CE000024600930349044800F0AAFC03B05DF8C3
:103CF00004FB00BF187A0008300101802DE9F74F5E
:103D0000D0F804A004469AF83A30002B46D1036854
:103D10005B68984763681B6A98423FD0DAF82030A6
:103D2000DAF80840A0EB0308CAF82000DAF80C30F3
:103D3000314808EA0308844246464FF0000727D07E
:103D4000DAE90A239AF83BB0A8FB0089CDE9002301
:103D50000025BBF1000F2BD05A464046494602F0E1
:103D6000D1F9DDE9002312EB080243EB0903904689
:103D70005A46994606460F4602F0D0F9B8EB0000C5
:103D800069EB0101A94208BFA0420AD2CAE90A01AF
:103D9000DAE90C23B6185F41CAE90C6703B0BDE845
:103DA000F08F013647F10007001B61EB0501EDE7DD
:103DB00022462B464046494602F068FE2246064609
:103DC0000F46404649462B4602F060FEDDE9008979
:103DD00018EB020849EB0309A94508BFA04502D228
:103DE000CAE90A89D4E7013647F10007B8EB0408AD
:103DF00069EB0509F4E700BF40420F00824206D993
:103E00008A420BD9884294BF002001207047884223
:103E100006D98A428CBF00200120704701207047DC
:103E2000002070472DE9F14F4768064697F83A3071
:103E3000002B60D197F83930002B5CD1FFF75EFF83
:103E400075686B68002B59D0D5E90C89D3E900015E
:103E5000894508BF804505D333685B6901B0BDE87B
:103E6000F04F1847B0EB080861EB0909D5E90623C4
:103E70004B4508BF42452C6906D3AB68254A93429F
:103E80000FD1444528BF44462A6A3B6A1444EA6875
:103E90001440A34221D14FF484721F491F4800F0FF
:103EA0007BFA95F83B20DFF878A04FF0000B7AB151
:103EB0004046494602F032F910EB0A0041EB0B0193
:103EC000144A002302F0E2FD844228BF0446DBE7E7
:103ED000A3FB080103FB0911EEE7336820461B69C9
:103EE000984733685B68984722460146386AFFF76F
:103EF00085FF0028B0D101B0BDE8F08F3B69386A7A
:103F0000FA681844336810401B6901B0BDE8F04FEF
:103F1000184700BF40420F00787A0008C27A0008B4
:103F20003F420F002DE9F04F436885B093F83820E9
:103F30000546002A64D193F83A30002B60D103681B
:103F40001B6898472B68DB699847076827B92D22BB
:103F50002D492E4800F020FA1F23012202FA03F116
:103F60008F425FFA83FB02D0013BF7D19B46D0F82A
:103F700004A0AAF104031C2B01D93B22E8E7072681
:103F80009E40002317F1FF30214C43F1FF313A46A8
:103F9000C4FB060102F07AFD00236C682A682360E6
:103FA000636052680393CDE9000190474FF0000829
:103FB0004FF0000920626C685246C4E90A89A76084
:103FC00084F83BB00120002102F0A8F8DDE90023CD
:103FD000C4E90623039B013884F8393084F83A3069
:103FE0000123E06026612846C4E90C8984F8383052
:103FF000FFF784FE284605B0BDE8F04FFFF712BF7B
:1040000005B0BDE8F08F00BF787A0008637B000838
:1040100040420F0038B505460C46FFF783FF00F01D
:10402000D7F96B681C60BDE8384000F0E7B970B59F
:10403000044600F0CDF92368DB689847636893F87D
:104040003A201AB1BDE8704000F0D8B9012283F8D7
:10405000392063685B68A3B12046FFF74FFE6568AF
:104060006E68D5E90C01D6E90023994208BF904259
:1040700007D3F3686B602B68002BEAD0B0689847D1
:10408000E7E700226368204683F83920FFF7CAFE7D
:10409000D8E72DE9F04180460C4616461F46069D9E
:1040A00000F096F94046FFF729FEA5600025D8F8F4
:1040B0000420C4E9006753684BB9E36085B95460D4
:1040C0004046FFF7AFFEBDE8F04100F097B9D3E9F5
:1040D00000018F4208BF8642EFD31D46DB68EBE745
:1040E000EC60F0E738B505460C4600F071F96A68F7
:1040F0005368A34209D1DB6828465360FFF792FE5C
:10410000BDE8384000F07AB91346002BF8D0DA68E1
:104110009442F9D1E268DA60F2E738B50446FFF775
:1041200001FF00F055F92046FFF7E8FD6368D3E989
:104130000C4500F063F92046294638BD08B5FFF765
:10414000ECFF08BD00487047E87A0008024B1B6886
:104150000BB102481847704700020020E87A0008B7
:10416000024B1B6803B11847704700BF980A002034
:1041700070B50E4600250446056045600E49304680
:1041800001F0ABFC29463044206023681A782F2ABE
:1041900007D10133236051B92A220849084800F0A9
:1041A000FBF8002AF7D0013301312360EDE700F07E
:1041B00037FB6060204670BD107B0008127B000852
:1041C0005C7B000800687047406808B520B100F0CB
:1041D000CFFA431E5842584108BD10B50446FFF7B8
:1041E000F3FF10B1606800B1043810BD406808B535
:1041F00020B100F0BDFAB0FA80F0400908BD10B55A
:104200000446FFF7F3FF10B1606800B1043810BD39
:104210004068003018BF0120704700207047704789
:104220007047F8B50E46036804461B6D8F18354677
:104230009847BD4207D0236815F8011B9B6C2046A8
:1042400098470130F5D1236820465B6D9847A81B3D
:10425000F8BDF8B50E46036804461B6D8F18354649
:104260009847BD4208D023682046DB6C9847431C22
:1042700002D005F8010BF4E7236820465B6D9847F0
:10428000A81BF8BD00207047704700207047002031
:104290007047000010B50446044B0360503340F8EB
:1042A000043F00F085FA204610BD00BF707B000877
:1042B000A0F10400EEE700BF10B50446FFF7EAFFE7
:1042C0002046FDF722FB204610BDA0F10400F3E7D5
:1042D00013B504460E4B002240F8043B00F04AFAA6
:1042E0000C4B0D49236060336360002320466361FB
:1042F000FDF76CFB0346606128B900900246074950
:10430000074800F09DF9FDF76DF9204602B010BD99
:10431000447F0008E87B0008C87B0008CB7B0008CE
:104320001901018010B50446064B03F108026833F9
:1043300002604360406900F01BFB2046FFF7AAFFC4
:10434000204610BDE07B000838B504460D460368E2
:104350001B6D984701220021606900F02DFD616905
:10436000284600F01FFD0546236820465B6D9847F0
:10437000284638BD38B5044603681B6D9847606908
:1043800000F0B0FB606900F0EBFB054623682046B7
:104390005B6D9847284638BD04460D46164607B55E
:1043A00000F016F800962B4600222146014800F046
:1043B00047F900BF4401FF80EFF31080C04300F0D5
:1043C00001007047EFF30580003018BF01207047EF
:1043D00010B5074C2368013304D151220549064822
:1043E000FFF7DAFF00F098F923680133236010BD6E
:1043F0009C0A0020507C00089D7C0008054B1A6830
:1044000032B11A68013A1A601B680BB900F096B90C
:10441000704700BF9C0A00200122D0E84F3FC0E84F
:10442000412F0029F9D1D8B2003018BF01207047C0
:10443000D0E85F3F0B449BB2C0E8523F002AF7D15F
:1044400018467047D0E85F3F5B1A9BB2C0E8523F06
:10445000002AF7D11846704708B50B48FFF7DCFF74
:1044600028B1FFF7B5FFBFF34F8F20BFFDE7FFF780
:10447000A9FF08B1FCF7D2FEFFF79EFF0028F9D094
:104480000120FDF71FFA00BFE00A002070B5164CAE
:104490000D4634EA200428BF044616468EB0342266
:1044A000002101A800F01CFE019402960395FFF77D
:1044B0008FFF0E4A13680133012B136004D134229D
:1044C00001A90B4800F001FE342201A9094800F0BF
:1044D000FCFD094B1B680BB106489847FFF78EFFA0
:1044E00000200EB070BD00BF0101FF80A00A0020B7
:1044F000AC0A0020E40A0020A40A00202DE9F041C3
:104500002E4C0E4621688046C1F34173032B0CBF2D
:104510004D428DB2C1F30743174629482A46FCF79E
:10452000D5FE6FF498731D44132D0FD8DFE805F006
:104530000A2D3033363C393F0E0E0E0E0E0E0E0E87
:104540000E0E0E42A1681F48FCF7C0FE4046FCF765
:1045500093FE61681C48FCF7B9FE4EB11B48FCF79E
:104560008BFE3046FCF788FE39461948FCF7AEFE54
:10457000A1681848FCF7AAFE21681748FCF7A6FEB8
:10458000BDE8F0411548FCF7A1BEA1681448DBE77F
:10459000A1681448D8E7A1681348D5E7A168134873
:1045A000D2E7A1681248CFE7A1681248CCE7A1681A
:1045B0001148C9E71148FCF789FEC7E7E40A002063
:1045C000E37C0008347D0008DC7D0008ED7D0008F8
:1045D000F57D0008F97D00080D7E0008597E000871
:1045E0004A7D00085A7D0008697D00087C7D00082E
:1045F000907D0008A47D0008B37D0008C97D0008F7
:104600000FB407B50B487546FFF706FF044670B9AF
:1046100001462A460848FFF739FF21460748224647
:10462000FFF76CFF05A904980191FCF735FEFFF731
:1046300013FF00BFA80A00200001FF80CE7C000805
:1046400080B506460948F0460C4617461D46FFF75A
:10465000E3FE48B9424639463046FFF717FF029A53
:1046600029462046FFF74AFFFFF7F6FEA80A00207A
:1046700013B5FFF7ADFE4FF6FF730B4C22889A423D
:1046800008D1FFF7BBFE00232288009307490848A2
:10469000FFF7D6FF01212046FFF7CAFE02B0BDE8B2
:1046A0001040FFF7ABBE00BF180B0020737E000860
:1046B0002301048037B50B4CFFF78AFE258845B9E6
:1046C000FFF79CFE228800952B4607490748FFF715
:1046D000B7FF01212046FFF7B5FE03B0BDE830402B
:1046E000FFF78CBE180B0020987E00082401048080
:1046F00070B50446FFF726FD0646FFF71FFD054689
:104700003046FFF71BFD401BA042F9D370BD4FF4AC
:104710007A735843FFF7ECBFEFF31083DB4372B6B5
:10472000044A117829B9044903F001030B700123ED
:10473000137070471B0B00201A0B002008B5EFF315
:104740001083DB0704D4362205490648FFF724FE10
:104750000022054B1A70054B1B7803B162B608BDE9
:10476000B67E00080A7F00081B0B00201A0B0020F1
:10477000007B704738B50B4B0446036000230D46A1
:104780004360A16002730848FDF7C2F845B1074BCA
:104790001A681C6062600448FDF7BAF8204638BD0C
:1047A0006560F8E7347F0008200B00201C0B002018
:1047B00010B50446114B03601148FDF7A9F8A36832
:1047C0002BB1104A13689C4212D1636813600E4BE0
:1047D0000B481A68944204BF00221A60FDF798F84B
:1047E000237B13B9201FFDF7A7F8204610BD134601
:1047F0005A689442FBD162685A60E8E7347F000847
:10480000200B00201C0B0020300B002010B50446AC
:10481000FFF7CEFF2046FDF778F8204610BD0000D8
:1048200070B5064614480D46FDF772F8134B1C6828
:104830007CB1A068E8B101F048F9A84219D12A4634
:104840003146A06800F032FC98B90B48FDF760F8DB
:104850000DE0072DF9D12A463146094800F026FC23
:104860000028F2D10448FDF753F8064B1C68204697
:1048700070BD6468DCE700BF200B00201C0B00202B
:10488000247F0008300B0020036870B51B690122EB
:10489000002104469847051E0DDB236802221B6990
:1048A0000021204698470646236829461B690022B6
:1048B000204698473546284670BDFDF726B80000CB
:1048C000014B1868704700BF0402002070B5054610
:1048D0000C4611B90026304670BD18B183690BB97A
:1048E00000F086F91F4B9C4232D16C68B4F90C3051
:1048F000002BEFD02146284600F042F8236B0646F5
:1049000033B1216A284698470028B8BF4FF0FF36D8
:10491000A3891B0603D52169284602F043FA616B7F
:1049200041B104F14403994202D0284602F03AFA18
:1049300000236363A16C21B1284602F033FA0023FF
:10494000A36400F0C1F90023A38100F0BEF9C2E71F
:10495000054B9C4201D1AC68C8E7044B9C4208BFA0
:10496000EC68C3E7AC7F0008CC7F00088C7F0008B0
:10497000024B01461868FFF7A9BF00BF04020020E0
:104980008A892DE9F041054610070C465AD44B6838
:10499000002B05DC0B6C002B02DC0020BDE8F08155
:1049A000E66A002EF9D0002312F480522F682B60A3
:1049B00033D0606DA3895A0705D56368C01A636B4D
:1049C0000BB1236CC01A00230246E66A216A28460E
:1049D000B047431CA38906D129681D294BD82B4A0F
:1049E000CA40D60747D5002262602269D9042260F6
:1049F00004D5421C01D12B6803B96065616B2F603F
:104A00000029CAD004F14403994202D0284602F09A
:104A1000C9F900206063BDE8F081216A01232846BE
:104A2000B047411CC6D12B68002BC3D01D2B01D031
:104A3000162B01D12F60B0E7A38943F04003A38177
:104A4000BDE8F0810F69002FA7D0930718BF00239E
:104A50000E6808BF4B69A6EB07080F608B60B8F1C2
:104A6000000F9ADD43463A46216A2846A66AB047B7
:104A7000002807DCA38943F04003A3814FF0FF30F7
:104A8000BDE8F0810744A8EB0008E8E701004020FA
:104A900038B50B6905460C46DBB118B183690BB913
:104AA00000F0A6F80C4B9C4209D16C68B4F90C30AC
:104AB0007BB121462846BDE83840FFF761BF074B70
:104AC0009C4201D1AC68F1E7054B9C4208BFEC6801
:104AD000ECE7002038BD00BFAC7F0008CC7F0008A9
:104AE0008C7F0008014620B9044B0549186800F086
:104AF00019BA044B1868FFF7CBBF00BFEC7F000862
:104B0000914A00080402002038B50C46054618B149
:104B100083690BB900F06CF80E4B9C420BD16C68AA
:104B20006368013B002B63600FDA21462846BDE82D
:104B3000384000F09BBE084B9C4201D1AC68EFE7C7
:104B4000064B9C4208BFEC68EAE723685A1C2260C7
:104B5000187838BDAC7F0008CC7F00088C7F000837
:104B6000024B01461868FFF7CFBF00BF04020020C8
:104B7000014900F0D7B900BF914A0008002310B5E1
:104B8000044603604360836081814366C2810361A0
:104B900043618361194608225C3000F0A1FA054B9D
:104BA00024626362044BA362044BE362044B2363FD
:104BB00010BD00BF315A0008535A00088B5A000834
:104BC000AF5A000870B568254A1E55430E4605F1D8
:104BD000740102F0E3F8044640B1002180E842008D
:104BE0000C30A06005F1680200F07AFA204670BD32
:104BF000836910B5044633BB8364C3640365124BF9
:104C0000124A1B688262984204BF0123836100F04C
:104C10001FF86060204600F01BF8A060204600F0FE
:104C200017F80022E06004216068FFF7A7FF012267
:104C30000921A068FFF7A2FF02221221E068FFF716
:104C40009DFF0123A36110BDEC7F0008714B00089C
:104C5000F8B51C4B07461E68B36913B93046FFF719
:104C6000C7FF4836B4687368013B03D5336833B176
:104C70003668F7E7B4F90C506DB16834F4E70421F5
:104C80003846FFF79FFF30600028F1D10C2304461F
:104C90003B602046F8BD4FF6FF73E3810123656654
:104CA000A3812560A560656025616561A561082215
:104CB000294604F15C0000F013FA6563A563A5645E
:104CC000E564E6E7EC7F000870477047F7B50F46EC
:104CD000114601AA054601F02FF8064618B900242E
:104CE000204603B0F0BD2846FFF7B2FF0446002877
:104CF000F5D04FF4DB73019A3946284600F0D8FC12
:104D0000002806DA0025FFF7DFFFA581FFF7DDFFAA
:104D1000E5E70A4BE0816362094BA681A362094B78
:104D20002462E362084B2363F305D9D502230022F2
:104D30002146284600F03EF8D2E700BF315A00086D
:104D4000535A00088B5A0008AF5A0008024B0A4613
:104D500001461868FFF7BABF0402002070B50E467E
:104D60001446054618B183690BB9FFF741FF0A4B9A
:104D70009C4207D16C68224631462846BDE8704007
:104D800000F0A8BC054B9C4201D1AC68F3E7044B92
:104D90009C4208BFEC68EEE7AC7F0008CC7F0008BF
:104DA0008C7F0008024B0A4601461868FFF7D6BF01
:104DB0000402002000F00AB813460A4601460248E1
:104DC000006800F003B800BF040200202DE9F8439A
:104DD0000C4691461E46054618B183690BB9FFF78C
:104DE00007FF3F4B9C4212D16C68A38903F4847384
:104DF000B3F5847F03D121462846FFF749FED4F856
:104E00002C80B8F1000F0CD11D232B6057E0354BDF
:104E10009C4201D1AC68E8E7334B9C4208BFEC6888
:104E2000E3E7012E30D0022E01D0002E55D12369A8
:104E30001BB92146284600F0DBF821462846FFF73B
:104E400027FE074600283AD133464A46216A2846BB
:104E5000C047013033D0616B41B104F14403994242
:104E600002D0284601F09EFF0023636300212369DE
:104E700061602360A389082223F40263A38104F103
:104E80005C0000F02DF91CE021462846FFF700FEEB
:104E9000A28912F480520CD0606DA3895A0713D5F1
:104EA0006368C01A636B0BB1236CC01A814400267F
:104EB000BDE7216A33462846C047411CEDD14FF07B
:104EC000FF373846BDE8F8831B07EFD52368002B72
:104ED000ECD022699B1A1844E8E7162395E700BF37
:104EE000AC7F0008CC7F00088C7F00082DE9F041E2
:104EF0008846002600F1480414B93046BDE8F08128
:104F0000A5686768013F01D52468F5E7AB89012BE7
:104F100006D9B5F90E30013302D02846C047064302
:104F20006835EFE72DE9F84380468946002600F111
:104F3000480414B93046BDE8F883A5686768013FA6
:104F400001D52468F5E7AB89012B07D9B5F90E30F7
:104F5000013303D029464046C84706436835EEE78B
:104F600070B500250C4E0D4CA41BA410A54209D110
:104F700002F004F800250A4E0A4CA41BA410A54216
:104F800005D170BD56F8253098470135EEE756F843
:104F9000253098470135F2E76802002068020020BA
:104FA000680200207002002070B50E46B1F90E10A4
:104FB00090B0002914461D4607DA00232B60B38900
:104FC0001A0610D44FF480630EE001AA00F0EAFE46
:104FD0000028F2DB029A02F47042A2F500535A4212
:104FE0005A412A60EEE740230020236010B070BDD4
:104FF0008B8973B59D0706460C4607D504F1470318
:10500000236023610123636102B070BD01AB6A4676
:10501000FFF7CAFF00990546304601F0BFFE48B9C8
:10502000B4F90C309A05EFD423F0030343F00203E4
:10503000A381E3E70D4BB362A389206043F08003B3
:10504000A381009B20616361019B5BB1B4F90E10E9
:10505000304600F0B9FE28B1A38923F0030343F0E2
:105060000103A381A3891D43A581CDE7714B0008EE
:10507000024B0146186801F091BE00BF04020020F7
:10508000024B0146186801F08DBE00BF04020020EB
:1050900010B5C9B202449042034601D1002010BDB0
:1050A0001C7801308C42F6D1184610BD10B501397C
:1050B0000244904201D1002010BD10F8013B11F8CC
:1050C000014FA342F5D0181B10BD10B5431E0A4472
:1050D000914200D110BD11F8014B03F8014FF7E7E1
:1050E00003460244934200D1704703F8011BF9E7DD
:1050F000936810B4013B002B936008DA9469A342D3
:1051000002DBCBB20A2B02D110BC00F033BD136816
:10511000581C10601970C8B210BC7047F8B506462C
:105120000F461446D518AC4201D1002007E03A469C
:1051300014F8011B3046FFF7DBFF431CF3D1F8BD29
:105140002DE9F04F9DB00C4617460393064618B163
:1051500083690BB9FFF74CFD7C4B9C4257D17468B7
:10516000A38918075DD52369002B5AD00023099322
:1051700020238DF8293030234FF0010B8DF82A3091
:10518000B846454615F8013B002B55D1B8EB070A48
:105190000BD053463A4621463046FFF7BFFF013059
:1051A00000F0C480099B5344099398F80030002B09
:1051B00000F0BC8000234FF0FF3204930793059268
:1051C00006938DF853301A93052229786048FFF72B
:1051D0005FFF05F10108049B002831D1D90644BFC7
:1051E00020228DF853201A0744BF2B228DF853201C
:1051F0002A782A2A2CD000210A20079AA84698F853
:1052000000300135303B092B6DD971B326E0514B8D
:105210009C4201D1B468A3E74F4B9C4208BFF4689D
:105220009EE72146304600F009FD00289ED04FF051
:10523000FF301DB0BDE8F08F252BA7D0A846A0E712
:10524000434A4546801A0BFA00F018430490BBE726
:10525000039A111D12680391002A01DB079204E0F2
:10526000524243F002030792049398F800302E2B29
:1052700010D198F8013008F101012A2B37D1039B96
:1052800008F102081A1D1B680392002BB8BF4FF0EB
:10529000FF330593314D032298F800102846FFF79D
:1052A000F7FE40B14023401B03FA00F0049B08F1D5
:1052B00001080343049398F800100622284808F1D7
:1052C00001078DF82810FFF7E3FE002834D0254BA6
:1052D00003BB039B073323F0070308330393099BA6
:1052E0004B4409934CE700FB0232012186E700237F
:1052F0000A2518460593884698F800200131303A6F
:10530000092A03D9002BC5D00590C3E705FB00206F
:105310000123F0E703AB00932246134B04A9304668
:10532000AFF30080B0F1FF3F8146D8D1A3895B067F
:105330003FF57DAF09987CE703AB009322460A4B0B
:1053400004A9304600F094F8ECE700BFAC7F0008F9
:10535000F07F0008CC7F00088C7F0008F67F0008F3
:10536000FA7F0008000000001D51000813460A469D
:10537000014602480068FFF7E3BE00BF04020020B8
:105380002DE9F04791461F468A680B69064693420D
:10539000B8BF1346C9F8003091F843200C46DDF839
:1053A000208012B10133C9F800302368990642BF4A
:1053B000D9F800300233C9F80030256815F0060529
:1053C00007D104F1190AE368D9F800209B1A9D421D
:1053D0002ADB94F843302268003318BF0123920679
:1053E0002FD404F1430239463046C047013022D061
:1053F0002368E56803F00603042B18BF0025D9F8DD
:1054000000204FF0000908BFAD1AA368226908BF49
:1054100025EAE5759342C4BF9B1AED181A344D4531
:105420001BD10020BDE8F0870123524639463046A3
:10543000C047013003D14FF0FF30BDE8F0870135A0
:10544000C1E73020E11881F843005A1C94F8451058
:105450002244023382F84310C3E70123224639462F
:105460003046C0470130E6D009F10109D7E7000016
:105470002DE9F04317460A7E85B06E2A9846064607
:105480000C460C9B01F1430E00F0BC801AD8632A35
:105490002ED00AD8002A00F0C880582A00F08A804E
:1054A00004F1420584F842202AE0642A01D0692AE6
:1054B000F6D121681A6811F0800F23D0111D1960F0
:1054C000136827E0732A00F0B48008D86F2A2AD026
:1054D000702AE5D10A6842F020020A6003E0752ACA
:1054E00021D0782ADCD178226F4984F8452064E005
:1054F0001A6801F14205111D1960136884F84230E1
:105500000123A3E011F0400F02F104011960D7D08C
:10551000B2F90030002B03DA2D225B4284F84320DD
:1055200062490A2217E02068196810F0800F03D042
:10553000081D18600B6806E010F0400F01F1040030
:105540001860F7D00B886F2A14BF0A220822574927
:10555000002084F843006568002DA560C0F29C809F
:10556000206820F004002060002B3FD1002D40F087
:1055700095807546082A0BD12368DA0708D5236978
:1055800062689A42DEBF302305F8013C05F1FF3521
:10559000AEEB05032361CDF800803B4603AA21460C
:1055A0003046FFF7EDFE013055D14FF0FF3005B02A
:1055B000BDE8F08381F845203C492268186812F064
:1055C000800F00F104051D6001D0036802E055065C
:1055D000FBD50388D00744BF42F0200222601BB9EC
:1055E000226822F0200222601022B1E77546B3FB48
:1055F000F2F002FB1033CB5C05F8013D03460028B6
:10560000F5D1B7E708681A6810F0800F496904D02F
:10561000101D18601368196007E010F0400F02F1C8
:10562000040018601368F6D01980002375462361C2
:10563000B1E71A68111D19601568002162682846D3
:10564000FFF726FD08B1401B6060636823610023FB
:1056500084F843309FE723692A4639463046C047DD
:105660000130A2D023689B0707D5002504F1190952
:10567000E368039A9B1A9D4205DBE068039B98420E
:10568000B8BF184693E701234A4639463046C0471B
:1056900001308AD00135EBE7002BA7D10B7804F15C
:1056A000420584F8423065E7128000080180000856
:1056B00038B50546084611460022054C22601A46B8
:1056C000FCF7EEF9431C02D1236803B12B6038BD0F
:1056D000E80C002070B50D461446064618B18369E3
:1056E0000BB9FFF785FA134B9C4212D17468A3687B
:1056F000013B002BA36016DAA269934202DBEBB2F6
:105700000A2B10D1224629463046BDE8704000F0F1
:1057100031BA094B9C4201D1B468E8E7074B9C427F
:1057200008BFF468E3E72368E8B25A1C22601D70E2
:1057300070BD00BFAC7F0008CC7F00088C7F0008E4
:10574000838903F00903092B01D1FFF7CBB90020AE
:1057500070470000F8B50C46054618B183690BB9CF
:10576000FFF746FA3C4B9C420AD16C680023B4F91F
:105770000C20636093B29E060CD54FF0FF30F8BD4D
:10578000364B9C4201D1AC68F0E7354B9C4208BFD8
:10579000EC68EBE7580749D4D90605D4092342F051
:1057A00040022B60A281E8E71A070BD52146284664
:1057B000FFF76EF90028E0D1A389A06023F0080369
:1057C000A381A061A38943F00403A38123691BB9CA
:1057D00021462846FFF70CFCB4F90C70BEB2B307A3
:1057E0000FD00123A3811F4B1F49186806F009063B
:1057F000FFF77CFB092EA78103D121462846FFF73E
:10580000BFF82269666A22606369216A2846B04748
:10581000002860601DDC18BF0022A38916BF6260EB
:1058200043F0200343F04003A381A6E7616B002906
:10583000CCD004F14403994202D0284601F0B2FAD8
:105840000020236C60636360002BBFD0E36B236098
:10585000F8BD0020F8BD00BFAC7F0008CC7F000879
:105860008C7F0008EC7F00084157000838B50C46D3
:10587000054618B183690BB9FFF7BAF90E4B9C4284
:105880000DD16C6821462846FFF764FF88B963682C
:10589000013B636023685A1C2260187838BD074BAF
:1058A0009C4201D1AC68EDE7054B9C4208BFEC6817
:1058B000E8E74FF0FF3038BDAC7F0008CC7F000830
:1058C0008C7F000800294FF480630CBF0222002265
:1058D00000F000B82DE9F7431D46514B04461E6801
:1058E0000F46904626B1B36913B93046FFF780F9E9
:1058F0004C4B9C4252D17468B8F1020F06D0B8F1FB
:10590000010F00F28980002DC0F2868021463046CA
:10591000FFF7BEF8616B41B104F14403994202D034
:10592000304601F03FFA002363630023A361636004
:10593000A3891B0603D52169304601F033FAA389F8
:10594000B8F1020F23F44A6323F00303A3815DD06F
:1059500001AB6A4621463046FFF726FBA389184370
:10596000A0812DBB009D2846FFF782FB074600283B
:105970004ED1DDF80090A9453CD14FF0FF30A3890E
:1059800043F00203A3810023A36004F147032360D3
:1059900023610123636103B0BDE8F083224B9C4285
:1059A00001D1B468A8E7214B9C4208BFF468A3E783
:1059B000002FD8D0B36913B93046FFF719F9B8F101
:1059C000010F08BFA389276004BF43F00103A3812F
:1059D000A389276113F0080065611BD013F0010053
:1059E0004FF000031FBF6D42A360A561184608BFBA
:1059F000A560D0E74846FFF73BFB07460028BCD030
:105A0000A3894D4643F08003A381D3E70020B6E786
:105A1000A946F5E7A060BEE74FF0FF30BBE700BF47
:105A200004020020AC7F0008CC7F00088C7F0008B7
:105A300010B50C46B1F90E1000F052FB0028ABBFB8
:105A4000636DA3891B1823F48053ACBF6365A381E6
:105A500010BD2DE9F0411F468B890546DB050C463C
:105A6000164605D502230022B1F90E1000F0BCF94C
:105A7000A389324623F48053A381B4F90E103B4628
:105A80002846BDE8F04100F0C7B810B50C46B1F9A2
:105A90000E1000F0A9F9431CA38915BF606523F41B
:105AA000805343F48053A38118BFA38110BDB1F983
:105AB0000E1000F031B910F8012B11F8013B012A4A
:105AC00028BF9A42F7D0D01A7047034613F8012B2B
:105AD000002AFBD1181A01387047034670B51A46E0
